:020000040000fa
:080000000002040000000000f2
:020000040000fa
:040008000a030000e7
:020000040000fa
:04000c001c030000d1
:020000040000fa
:0400100034030000b5
:020000040000fa
:0400140012030000d3
:020000040000fa
:0400180024030000bd
:020000040000fa
:04001c002c030000b1
:020000040000fa
:040020003c0300009d
:020000040000fa
:040024004e07000083
:020000040000fa
:040028004e0700007f
:020000040000fa
:04002c004e0700007b
:020000040000fa
:040030004e07000077
:020000040000fa
:04003400e2060000e0
:020000040000fa
:040038004e0700006f
:020000040000fa
:04003c004e0700006b
:020000040000fa
:040040004e07000067
:020000040000fa
:040044004e07000063
:020000040000fa
:04004800200700008d
:020000040000fa
:04004c004e0700005b
:020000040000fa
:040050004e07000057
:020000040000fa
:040054004e07000053
:020000040000fa
:040058004e0700004f
:020000040000fa
:04005c004e0700004b
:020000040000fa
:04006000aa030000ef
:020000040000fa
:040064004e07000043
:020000040000fa
:040068004e0700003f
:020000040000fa
:04006c0090040000fc
:020000040000fa
:040070004e07000037
:020000040000fa
:040074004e07000033
:020000040000fa
:040078004e0700002f
:020000040000fa
:04007c004e0700002b
:020000040000fa
:040080004e07000027
:020000040000fa
:040084004e07000023
:020000040000fa
:040088004e0700001f
:020000040000fa
:04008c004e0700001b
:020000040000fa
:040090004e07000017
:020000040000fa
:040094004e07000013
:020000040000fa
:040098004e0700000f
:020000040000fa
:04009c004e0700000b
:020000040000fa
:0400a0004204000016
:020000040000fa
:0400a400ea0300006b
:020000040000fa
:0400a8004e070000ff
:020000040000fa
:0400ac004e070000fb
:020000040000fa
:0400b000a2030000a7
:020000040000fa
:0400b4004403000001
:020000040000fa
:0400b8004e070000ef
:020000040000fa
:0400bc004e070000eb
:020000040000fa
:0400c0004e070000e7
:020000040000fa
:0400c4004e070000e3
:020000040000fa
:0400c8004e070000df
:020000040000fa
:0400cc004e070000db
:020000040000fa
:0400d0004e070000d7
:020000040000fa
:0400d4004e070000d3
:020000040000fa
:0400d8004e070000cf
:020000040000fa
:0400dc004e070000cb
:020000040000fa
:0400e0004e070000c7
:020000040000fa
:0400e4004e070000c3
:020000040000fa
:0400e8004e070000bf
:020000040000fa
:0400ec004e070000bb
:020000040000fa
:0400f0004e070000b7
:020000040000fa
:0400f4004e070000b3
:020000040000fa
:0400f8004e070000af
:020000040000fa
:0400fc004e070000ab
:020000040000fa
:040100004e070000a6
:020000040000fa
:040104004e070000a2
:020000040000fa
:040108004e0700009e
:020000040000fa
:04010c004e0700009a
:020000040000fa
:040110004e07000096
:020000040000fa
:040114004e07000092
:020000040000fa
:040118004e0700008e
:020000040000fa
:04011c004e0700008a
:020000040000fa
:040120004e07000086
:020000040000fa
:040124004e07000082
:020000040000fa
:040128004e0700007e
:020000040000fa
:04012c004e0700007a
:020000040000fa
:040130007a0400004d
:020000040000fa
:040134004e07000072
:020000040000fa
:040138004e0700006e
:020000040000fa
:04013c004e0700006a
:020000040000fa
:040140004e07000066
:020000040000fa
:040144004e07000062
:020000040000fa
:040148004e0700005e
:020000040000fa
:04014c004e0700005a
:020000040000fa
:040150004e07000056
:020000040000fa
:040154004e07000052
:020000040000fa
:040158004e0700004e
:020000040000fa
:04015c004e0700004a
:020000040000fa
:040160004e07000046
:020000040000fa
:040164004e07000042
:020000040000fa
:040168004e0700003e
:020000040000fa
:04016c004e0700003a
:020000040000fa
:040170004e07000036
:020000040000fa
:040174004e07000032
:020000040000fa
:040178004e0700002e
:020000040000fa
:04017c004e0700002a
:020000040000fa
:040180004e07000026
:020000040000fa
:040184004e07000022
:020000040000fa
:040188004e0700001e
:020000040000fa
:04018c004e0700001a
:020000040000fa
:040190004e07000016
:020000040000fa
:040194004e07000012
:020000040000fa
:040198004e0700000e
:020000040000fa
:04019c004e0700000a
:020000040000fa
:0401a0004e07000006
:020000040000fa
:0401a4004e07000002
:020000040000fa
:0401a8004e070000fe
:020000040000fa
:0401ac004e070000fa
:020000040000fa
:0401b0004e070000f6
:020000040000fa
:0401b4004e070000f2
:020000040000fa
:0401b8004e070000ee
:020000040000fa
:0401bc004e070000ea
:020000040000fa
:0401c0004e070000e6
:020000040000fa
:0401c4004e070000e2
:020000040000fa
:0401c8004e070000de
:020000040000fa
:0401cc004e070000da
:020000040000fa
:0401d0004e070000d6
:020000040000fa
:0401d4004e070000d2
:020000040000fa
:0401d8004e070000ce
:020000040000fa
:0401dc004e070000ca
:020000040000fa
:0401e0004e070000c6
:020000040000fa
:0401e4004e070000c2
:020000040000fa
:0401e8004e070000be
:020000040000fa
:0401ec004e070000ba
:020000040000fa
:0401f0004e070000b6
:020000040000fa
:0401f4004e070000b2
:020000040000fa
:0401f8004e070000ae
:020000040000fa
:0401fc004e070000aa
:020000040000fa
:040200004e070000a5
:020000040000fa
:040204004e070000a1
:020000040000fa
:040208004e0700009d
:020000040000fa
:04020c004e07000099
:020000040000fa
:040210004e07000095
:020000040000fa
:040214004e07000091
:020000040000fa
:040218004e0700008d
:020000040000fa
:04021c004e07000089
:020000040000fa
:040220004e07000085
:020000040000fa
:040224004e07000081
:020000040000fa
:040228004e0700007d
:020000040000fa
:04022c004e07000079
:020000040000fa
:040230004e07000075
:020000040000fa
:040234004e07000071
:020000040000fa
:040238004e0700006d
:020000040000fa
:04023c004e07000069
:020000040000fa
:040240004e07000065
:020000040000fa
:040244004e07000061
:020000040000fa
:040248004e0700005d
:020000040000fa
:04024c004e07000059
:020000040000fa
:040250004e07000055
:020000040000fa
:040254004e07000051
:020000040000fa
:040258004e0700004d
:020000040000fa
:04025c004e07000049
:020000040000fa
:040260004e07000045
:020000040000fa
:040264004e07000041
:020000040000fa
:040268004e0700003d
:020000040000fa
:04026c004e07000039
:020000040000fa
:040270004e07000035
:020000040000fa
:040274004e07000031
:020000040000fa
:040278004e0700002d
:020000040000fa
:04027c004e07000029
:020000040000fa
:040280004e07000025
:020000040000fa
:100400000f4021000eff24000e01880000000000b4
:10041000000020000000e000020032000001200087
:100420002002880014000700f50207000000e00029
:1004300003003a00e06a22000100200002003700b9
:100440000000200001002000810f70000100320038
:100450000f000700000020000000e0000200320052
:10046000000002000000000006160200000000006c
:100470000040da000000fe00c07a20000000e0002a
:1004800002003200002020009001880000000600d9
:10049000a1028800800478000000eb001f003700f4
:1004a000e284440054a0b4009905ba00e2844400f8
:1004b00054a0b4009906ba00e284440054a0b400e9
:1004c0000006eb00476fde00fd07b200ae018800ba
:1004d000636ce10003003a000ad801000000eb0061
:1004e0000e003700606ce10008003a00004deb00a0
:1004f0000a05e800020039003420ec000af0a000f0
:100500008b05e900f9ff3e00040037006168e10057
:10051000010032000086eb000b00070019c7ba008b
:100520000e04e0001905ba0003003a000a00e000da
:10053000dbff3a0000000600fe07b200ae028800b2
:100540008a047800f5ff37000cd0a300e20f4d00bd
:100550001c00390089027800354dba000a05e80010
:10056000020039003420ec000af0a0008b05e900fd
:100570000f003200254dba000a05e80002003900dc
:100580003420ec000af0a0008b05e90008003200de
:100590000c00e0000600320015cdba000a05e800a4
:1005a000020039003420ec000af0a0008b05e900bd
:1005b0008984e80054a0b4000b00e000e2ff3a0098
:1005c000000006009902ba00055d78008b05e9007d
:1005d000f7ff3200c82ade00055d78008b05e900d0
:1005e000f3ff32000c00e000f1ff320019ddba0029
:1005f000eeff37003e1a040000000000161a040047
:10060000000000003018040000000000681704001b
:10061000000000003600f800c028a9000000eb0030
:10062000641207003600f80066120700c048a900ef
:10063000100020005f1207003600f800c068a90013
:10064000200020005b1207003600f800c088a900d7
:1006500030002000571207003600f800c0a8a9009b
:1006600040002000531207003600f800c608a90019
:10067000700020004f1207003600f800c488a9005f
:10068000a00020004b1207003600f800809fbe003b
:10069000829fbe00849fbe00869fbe000000fa00bd
:1006a0005120800000022000008060000000e00077
:1006b00016003200512080000000220000806000ff
:1006c0000000e00002003200740607000ba4a9003d
:1006d0005120800000002100008060000000e00048
:1006e00002003200700607000b84a9005120800030
:1006f00000802000008060000000e0000200320066
:100700006c0607000b64a9000aa4a9005020800011
:10071000620060000000e000020032000a24a9002c
:10072000670607000468a9000080fa004f03be00b6
:100730004f02be004f01be004f00be003600f90060
:10074000004006000000fa000448a9000080fa00fa
:10075000004006003600f800809fbe00829fbe0069
:10076000849fbe00869fbe000000fa0001c8a90059
:10077000207080004200de00614060000004a200a2
:10078000614060000080fb00610060004200dd000d
:1007900022708000b1ff2f00810061000100700015
:1007a00020708800601921001d070700100020003c
:1007b00080818800d80607000080fa004f03be0041
:1007c0004f02be004f01be004f00be003600f900d0
:1007d00000400600809fbe000000fa00718e80007d
:1007e00000202000008060000000e00002003200d5
:1007f00023e8a9002000370003e8a900190037000a
:10080000608e8000104078000080fb00a0118800fe
:10081000608e80000000e800608e8800618e80009d
:10082000801d2100808f500002003a00001d210031
:10083000608e8800718e8000f0ef2f0000806000d5
:10084000708e8800618e8000508e8000808f5000f6
:1008500004003a00708e80000090a000708e880026
:10086000050037009111800000202000008060000a
:100870000000e000e2ff32000080fa004f00be00fe
:10088000004006003600f800809fbe00829fbe0038
:10089000849fbe00869fbe003200f8003400f8003e
:1008a00010002000a0018800002020009001880096
:1008b000000000000000fa0003c8a900c7010700fb
:1008c0000040780022f0b70010002000208188004e
:1008d0000080fa003400f9003200f9004f03be0036
:1008e0004f02be004f01be004f00be003600f900af
:1008f00000400600801f78000000fa009011800080
:10090000620060000000e000010032003222a90015
:100910000848a9000080fa004f0078000040060057
:100920003600f800809fbe00829fbe00849fbe00fc
:10093000869fbe000000fa000228a9004110800036
:1009400000082000008060000000e0000800320085
:1009500008e2a9000830ef007080800020009000bd
:100960008000eb00010878000e30ef000e01370028
:10097000408080008000eb00b200200003002000d7
:10098000820f5000838f5800fd003e0000060100da
:100990000b0037003a003700760037009d00370023
:1009a000f4003700c9003700da003700f1003700e3
:1009b000dc003700f2003700350037005100370007
:1009c0000000210020009000620060000000e000b4
:1009d000f4003a00000021001000900070808800b0
:1009e0000000210010009000104078000af0b700cd
:1009f000000021001000900010009000608088002e
:100a00000000210010009000e600400000002100de
:100a1000110098000000210090009000601e21004d
:100a2000808f500003003a0000002100011e2100c9
:100a3000110098000000210020019000e1ff2f002c
:100a400081006100210098000000210090009000ca
:100a50000000210010007800808f500004003a0050
:100a600000002100a00090000110a00021009800cb
:100a70000602a8002000200040808800ca0037003d
:100a80000622a8002000200040808800c600370011
:100a90004110800000002800008060000000e0009d
:100aa0000800320000002100604090008040e80013
:100ab000000021006140980040002000db0b07008f
:100ac000b9003700808080008000d100f00f200046
:100ad000008060001010880080808000610060004d
:100ae000004078000004e00003003200b000200065
:100af00040808800ac003700300020004080880033
:100b0000a90037004110800000002800008060002c
:100b10000000e0000800320000002100604090006a
:100b20008040e80000002100614098004000200063
:100b3000be0b07009c0037000622a80080808000c2
:100b40004800de00e6006000000f20000100700099
:100b500080808800808080000000a0008080880065
:100b600010c0b30012f0b7002000200040808800c1
:100b70008d00370012d0bf00e14f50000a00320054
:100b80006080800010007800808088006080800095
:100b900020009000a08088006080800020409000ad
:100ba00016f0b700010037001270ef00818080005e
:100bb000f00f2000808f50000900360080808000f8
:100bc0004800de00e6006000000f20000100700019
:100bd00010108800a00020004080880072003700bc
:100be000808080001010880080808000610060009c
:100bf000004078000004e0000300320050002000b4
:100c00004080880068003700300020004080880065
:100c1000650037004110800000002800008060005f
:100c20000000e00009003200000021006040900058
:100c30008040e800000021006140980009e2a9001e
:100c400050002000790b07005700370016d0bf0076
:100c50008080fb008100e900cf08de008140780041
:100c60000040e90016f0b7000104e0001000320077
:100c70006080800066004000608088000ad0bf006d
:100c80000040e9000af0b7000ad0bf000004e0000d
:100c900003003a0020002000640b070042003700e8
:100ca0000622a80020002000408088003e00370077
:100cb000a0808000904078008180fb0011108800a7
:100cc0000000e800a0808800370037004110800055
:100cd00000002800008060000000e00009003200f1
:100ce00000002100604090008040e80000002100ea
:100cf00061409800400020004c0b070009e2a90069
:100d0000290037000662a80080002000408088008b
:100d10002500370080002000408088000662a8007f
:100d200021003700a0808000011080008140780001
:100d3000014878000000e800a080880016d0bf00bd
:100d40000040e90016f0b70016d0bf000004e00034
:100d50000400320006a2a900600020004080880044
:100d60000200370006a2a8001f0b07000682a80099
:100d70000d003700200020002c0b07000a00370070
:100d800000002100604090008040e8000000210049
:100d90006140980060002000240b07000000000064
:100da00001003700000000000080fa004f03be0081
:100db0004f02be004f01be004f00be003600f900da
:100dc000004006003600f800809fbe00829fbe00f3
:100dd000849fbe00869fbe000000fa00a0818000b4
:100de0000000e800a0818800a1818000e00f2000c1
:100df000808f5000020036006f0f07003430ef0084
:100e0000301f2100104078008040e800301f210092
:100e100001487800201f210011c0b300014878006c
:100e20000068a9000080fa004f03be004f02be0018
:100e30004f01be004f00be003600f9000040060022
:100e40003600f800809fbe00829fbe00849fbe00d7
:100e5000869fbe000000fa004b0e0700501f2100c5
:100e6000104078008040e800501f210001487800c1
:100e7000401f210011c0b300014878000108a900fb
:100e80000080fa004f03be004f02be004f01be00bb
:100e90004f00be003600f900004006000040da00b6
:100ea0000000fe000208a900e70060000228a90077
:100eb0000001780083ff2f000207b2004442800047
:100ec0008481610083817000e800600043428800f3
:100ed000c308de00f3f82f00e18060004442800088
:100ee000848161000008b200830171004700de00c8
:100ef00043428800e2ff2f00610060001341800040
:100f0000030161000000400002817000d1ff2f004a
:100f100012418800144180008480600081007000cc
:100f200011418800000006000602ab00feff3a00f7
:100f30000642ab00fcff3a000662ab00faff3a0043
:100f40000622ab00f8ff3a000682ab00f6ff3a003b
:100f500009c2ab00f4ff3a00000006000662a800d8
:100f60000662ab00feff3a0008c2a9000010800034
:100f7000000006008040780000c0eb008180fb008c
:100f80001110880008e2ab0007003a0009c2ab006c
:100f9000feff3a00e4ff07000040eb000802e20019
:100fa00001003d00e0cfb3000000060006a2a8004b
:100fb0000682a8000000060021108800301088007a
:100fc000000006000622a800000006000602a80095
:100fd000000006000642a800000006008011800004
:100fe00066006000e60f500002003a00b011800079
:100ff00000000600b0118000f00fb20000000600f3
:0410000000000500e7
:020000040000fa
:10100400415400005e5300004c450000443d000084
:10101400310d00000a000000415400005e5300003e
:10102400504f0000573d0000312c0000302c0000d0
:10103400300d00000a000000415400005e5300001f
:1010440049430000533d0000302c0000226300009f
:101054006f6e00007479000070650000222c00009f
:10106400226700007072000073300000220d00003f
:101074000a000000415400005e5300004943000090
:10108400533d0000302c000022610000706e00000f
:10109400222c0000226900006e74000065720000ba
:1010a4006e650000742200000d0a0000004100007b
:1010b400545e000053490000535300003d300000cb
:1010c4002c22000073720000767400007970000016
:1010d400652200002c220000736f0000636b000087
:1010e40065740000220d00000a0000004154000055
:1010f4005e53000049530000533d0000302c0000b3
:10110400226300006f6e000069640000222c00005e
:10111400300d00000a000000415400005e5300003e
:1011240049530000533d0000302c000022610000b0
:10113400646400007265000073730000222c0000d8
:10114400227300006f6300006b7400006370000082
:101154003a2f00002f6b0000777300006f630000cc
:101164006b650000742e00006a610000706100006d
:101174006e77000065730000742e0000636c00003d
:101184006f75000064610000707000002e61000043
:101194007a750000726500002e6300006f6d000018
:1011a4003a31000038350000303000003b65000063
:1011b400747800003b740000696d000065720000e3
:1011c4003d32000030300000220d00000a00000013
:1011d400415400005e530000495300004f3d00009d
:1011e400300d00000a000000415400005e5300006e
:1011f40049530000543d0000300d00000a00000077
:101204001001000020020000002b00002b2b000026
:1012140000410000545e00005349000053430000a5
:101224003d3000000d0a000000410000545e000043
:1012340053490000435300003d3000002c220000bd
:10124400636f00006e540000797000006522000096
:101254002c2200006770000072730000302200002e
:101264000d0a000000410000545e000053490000d4
:10127400435300003d3000002c2200006170000048
:101284006e2200002c220000696e000074650000cc
:10129400726e0000657400002e6900006f74000017
:1012a400220d00000a000000415400005e530000bb
:1012b40049530000533d0000302c0000227300000d
:1012c400727600005479000070650000222c000042
:1012d400227300006f6300006b650000742200003d
:1012e4000d0a000000410000545e00005349000054
:1012f400535300003d3000002c220000636f0000b7
:101304006e490000642200002c3000000d0a000029
:1013140000410000545e0000534900005353000094
:101324003d3000002c220000616400006472000063
:1013340065730000732200002c220000736f00000c
:10134400636b000074630000703a00002f2f0000ec
:1013540031300000342e000032310000352e000000
:10136400322e0000353100003a31000038350000db
:10137400303000003b650000747800003b740000ce
:10138400696d0000657200003d32000030300000dd
:10139400220d00000a000000666600006666000078
:1013a4006666000066660000666600006666000009
:1013b40066660000666600006666000066660000f9
:1013c40066660000666600006666000066660000e9
:1013d40066660000666600006666000066660000d9
:081f54000d0a0000000000006e
:020000040000fa
:101f5c000200fa00000f78001e007800e10f50001c
:101f6c0009003200e10f500005003900e20f50006b
:101f7c0007003200e30f5000070032000800370062
:101f8c0001eba8000600370011eba8000400370095
:101f9c0021eba8000200370031eba8000000000084
:101fac000080fa00000006000400fa00000f780020
:101fbc00110798001e007800e10f50000b00320052
:101fcc00e10f500005003900e20f50000b00320009
:101fdc00e30f50000d003200100037009e009000ff
:101fec0021588800062bef000c0037009e00900053
:101ffc00a1588800162bef00080037009e009000b7
:10200c0021598800262bef00040037009e00900019
:10201c00a1598800362bef00000000000080fa0068
:10202c00000006000400fa00000f78001107980069
:10203c001e007800e10f50000a003200e10f500042
:10204c0005003900e20f500009003200e30f500088
:10205c000a0032000c0037001e0090006058880007
:10206c00090037001e009000e05888000600370079
:10207c001e00900060598800030037001e0090007d
:10208c00e0598800000000000080fa000000060003
:10209c000000fa000080fa00000006000000fa00c0
:1020ac000080fa00000006000000fa000080fa0030
:1020bc00000006000000fa000080fa000000060094
:1020cc000000fa002468a9000c24ef000120800015
:1020dc00f08f2f000080600000a0a000002088007e
:1020ec000000000001208000000e200080806000b5
:1020fc0000082000808f5000faff3a0020002000da
:10210c0080208800800120009020880010002c0086
:10211c003020880010002000a02088000024ef0050
:10212c000004a800c1208000c0ff2f0000806000c8
:10213c00c02088008121800000fe2f00010070006b
:10214c0080218800a02180007f006000a0218800f1
:10215c00c02180007f006000c021880081218000a8
:10216c00c0ff2f000080600080218800a12180002a
:10217c00c0ff2f0000806000a0218800c1218000da
:10218c00c0ff2f0000806000c02188003224ef00c7
:10219c003624ef003a24ef003064a9003464a9001f
:1021ac003864a90000228000ff00600000602f004e
:1021bc00010070000022880001228000c0ff2f0067
:1021cc0000806000002288004224ef004064a900d7
:1021dc000121800000ff2f00008060000000a000a3
:1021ec00002188000004a90030e4a80031e4a90013
:1021fc0032e4a90033e4a90034e4a90035e4a900d1
:10220c0036e4a90037e4a90081218000c0ff2f002b
:10221c00008060008021880081218000f0cf2f0099
:10222c00008060008021880091218000c0ff2f0079
:10223c00008060009021880091218000f0cf2f0059
:10224c000080600090218800a1218000c0ff2f0039
:10225c0000806000a0218800a1218000f0cf2f0019
:10226c0000806000a0218800b1218000c0ff2f00f9
:10227c0000806000b0218800b1218000f0cf2f00d9
:10228c0000806000b02188002024ef002224ef00a1
:10229c002824ef002a24ef000a24a9000120800042
:1022ac00f08f2f00008060000020880000000000ec
:1022bc0001208000000e2000008060000000e00083
:1022cc00fbff3a002468a8000c24a8000ca4a8006a
:1022dc002448a8000080fa00000006000000fa0064
:1022ec00214420000000eb004eff070000202100dd
:1022fc00800078000000eb002bff07000000eb00d3
:10230c0013ff07000080fa00000006000000fa002e
:10231c00014420001000200042ff07000020210093
:10232c0080007800100020001fff07001000200024
:10233c0007ff07000080fa00000006000a00fa0000
:10234c00300798004107980000432000000f7800e8
:10235c000040eb00404798000000eb00100798008d
:10236c00260037001e0078009040780000c8b300ab
:10237c0000c060000004e0001c0032001e00780069
:10238c0010407800684060000004e00017003a003c
:10239c00012021001e0090004400dd000080400060
:1023ac00ce009000a30107003e0090000040780092
:1023bc00e34060001e007800e3c0600090417800ac
:1023cc00c2cfb30002c161008140710001487800a6
:1023dc001e007800904078000134a000014878007d
:1023ec0010c0b30040479800070037001e0fe800ec
:1023fc001e0090000000e800100798001e009000de
:10240c000000e000d7ff32004e4090000080fa0040
:10241c00000006000800fa00300798000040eb00ae
:10242c002047980001218000210798002e00900081
:10243c000000e000280032000000eb00000f7800e4
:10244c002000370070818000ae0090000008de0094
:10245c0061006000004078000004e0000e003200d3
:10246c007081800000407800be0090006f00070073
:10247c0070818000110020000008dd000080ea005f
:10248c00800078000021800000806000002188001e
:10249c0010c0b30020479800708180000000e80055
:1024ac007081880070818000ef0f500001003600b1
:1024bc002e30ef002e4090000004e00005003a00a2
:1024cc001e0fe8001e007800ef0f5000ddff3600f5
:1024dc0001003700000000002e4090000080fa0040
:1024ec00000006000000fa00502080004d00de00c5
:1024fc00614060000080fb0000f0a7000000ea00d3
:10250c000000ea004f00de00004078000080fa0076
:10251c00000006000000fa00502080004b00de0096
:10252c00614060000080fb0000f0a7000000ea00a2
:10253c000000ea004f00de00004078000080fa0046
:10254c00000006000000fa00502080004c00de0065
:10255c00614060000080fb0000f0a7000000ea0072
:10256c000000ea004f00de00004078000080fa0016
:10257c00000006000600fa000000eb00000f7800d7
:10258c0001218000210798002e0090000000e0003f
:10259c00110032000000eb00100798000b00370010
:1025ac001e009000ae0090000008de00610060008c
:1025bc00004078000004e000010032001e0fe8002b
:1025cc001e0090000000e800100798001e0090000c
:1025dc00ef0f5000f2ff36001e007800004078002c
:1025ec000080fa00000006000000fa000ac4a900ee
:1025fc000cc4a80001208000f08f2f000080600028
:10260c000080a00000208800000000000120800055
:10261c00000e20008080600000022000808f50009f
:10262c00faff3a000080fa00000006000c00fa00e5
:10263c00004f9800510798000000eb00100798001d
:10264c000000eb00000f78006000b8002007980035
:10265c00310798000e4890000080fb00c400dd009c
:10266c000020210000804000100078006100600014
:10267c00100798001e0090000000e00017003a00c0
:10268c000e4890000080fb00c400dd0000202100fb
:10269c000080400090007800c0ff210000806000a6
:1026ac004200de008000eb005e0190000089be005d
:1026bc005e00900041c0b300414098000e4890006d
:1026cc000080fb00c400dd000020210000804000e1
:1026dc0010007800620f60006b0037000e4890000d
:1026ec000080fb00c400dd000020210000804000c1
:1026fc00100078006101b800c0ff2100010020002b
:10270c000202780003017800800178000100780053
:10271c0003026200000061008000eb00c000dd00dd
:10272c00000020000001be006120b8000001710013
:10273c008181710022079800330798002e009000c9
:10274c00be009000c000dd00000020005e01900083
:10275c000089be005e00900010027800900290008c
:10276c000e4890000080fb004400dd008080e800f3
:10277c000020210000804000100078006101b800aa
:10278c00f0ff200001002000020378000301780014
:10279c0080017800010078000303630000006100f1
:1027ac008000eb00c000dd00000020000001be0036
:1027bc006130b80000017100818171004618dd00a4
:1027cc00ca10de00810070004610dd0004004000dd
:1027dc00858048005e0190000089be005e0090007c
:1027ec0010027800900290000e4890000080fb00d0
:1027fc004400dd00e4004000002021000080400087
:10280c00100078004a00de006101b800f0ff2f00d4
:10281c000100200002037800030178008001780099
:10282c000100780003036300000061008000eb00ee
:10283c00c000dd00000020000001be006130b800c7
:10284c000001710081817100040041008580490004
:10285c005e0190000089be005e00900031c0b300a4
:10286c00414098000e4890000080fb004400dd00c1
:10287c00e40040000020210000804000900078001f
:10288c0000202000008f60001e0078000000e00097
:10289c00040032005e00900021c0b300514098004b
:1028ac00620037005e00900011c0b30051409800e8
:1028bc000e4890000080fb004400dd00e600400064
:1028cc00002021000080400010007800804078003b
:1028dc005e009000714098000e4890000080fb0054
:1028ec004400dd00e6004000002021000080400094
:1028fc00100078004800de00804078005e009000f8
:10290c00014898000e4890000080fb004400dd0058
:10291c00e8004000002021000080400010007800fa
:10292c00804078005e009000114898000e4890009e
:10293c000080fb004400dd00e80040000020210086
:10294c0000804000100078004800de0080407800d5
:10295c005e009000214898000e4890000080fb001b
:10296c004400dd00ea00400000202100008040000f
:10297c0010007800804078005e009000314898008c
:10298c000e4890000080fb004400dd00ea0040008f
:10299c000020210000804000100078004800de007c
:1029ac00804078005e009000414898000e489000ee
:1029bc000080fb004400dd00ec0040000020210002
:1029cc000080400010007800804078005e0090008d
:1029dc00514898000e4890000080fb004400dd0038
:1029ec00ec00400000202100008040001000780026
:1029fc004800de00804078005e009000614898003e
:102a0c000e4890000080fb004400dd00e400400014
:102a1c000020210000804000100078000040780069
:102a2c00ef4060005e009000614098000080fa006a
:102a3c00000006000400fa00000f7800110798004f
:102a4c001e00900040409000e44f500014003a00eb
:102a5c001e0090009000900010007800800078001c
:102a6c00f07f200000806000c200dd001e007800b6
:102a7c00010878001e80e8008000eb000108780057
:102a8c009e007800648040009e009000e140900021
:102a9c008180fb00ef806000010878002400370083
:102aac001e00900090009000100078004008de009e
:102abc0080007800c0ff210000806000800078005a
:102acc000100a0001e007800010878001e81e800bb
:102adc001e0090009000900010007800ca09dd00e4
:102aec004600de0000807100c608de008000780021
:102afc00f0ff200000806000000978009e00780044
:102b0c00648140001e009000604090000080fb003b
:102b1c00ef0160001e009000900090001000780003
:102b2c00000078004a00dd000080410000097800b8
:102b3c009e017800668041009e00900081489000c4
:102b4c008180fb004809dd009e009000f140900060
:102b5c008180fb0081004100010878009e00780014
:102b6c00688040009e009000a14890008180fb008e
:102b7c004809dd009e009000914890008180fb0088
:102b8c0081004100010878009e0178006a804100b4
:102b9c009e009000c14890008180fb004809dd0038
:102bac009e009000b14890008180fb0081004100a4
:102bbc00010878009e0078006c8040009e00900018
:102bcc00e14890008180fb004809dd009e009000e8
:102bdc00d14890008180fb00810041000108780001
:102bec000080fa00000006000000fa00c3e8a8000c
:102bfc0000000000000000000080fa000000060049
:102c0c000000fa002f050700b4fd0700bffd070008
:102c1c00f5ff070014aea90000002000d10220002f
:102c2c00d308070014aea8001c30ef0009003700d1
:102c3c00e0808000e18080008140780082032100e8
:102c4c000000410001487800e08080000000e800ae
:102c5c00e0808800e1808000f00f2000808f500021
:102c6c00f3ff3400d6070700c9060700e0a32100d4
:102c7c000000010000002000211c2000bc080700ff
:102c8c0028d0bf000080fb00f20020004102200091
:102c9c005404070028d0bf000080fb00020f200066
:102cac00710220004f04070028d0bf000080fb00f9
:102cbc0002012000e10220004a04070028d0bf00d6
:102ccc000080fb0002012000f102200045040700f7
:102cdc0028d0bf000080fb0082002000d102200021
:102cec004004070028d0bf000080fb000202200037
:102cfc00110320003b0407000000200041192100b3
:102d0c009b08070060a1210000000100b081800039
:102d1c00e10f50000e003a00044ea900a406070073
:102d2c003630ef00008321000000010000832100f9
:102d3c000000010014cea90000002000910020002a
:102d4c008b08070014cea80091060700044ea800bb
:102d5c009170800000002400008060000000e00002
:102d6c000400320000002000211c20008008070015
:102d7c00beff37008076210000000100bbff37004a
:102d8c000000fa00140ea90060c0b3001006070082
:102d9c00140ea80060122000010020007408070027
:102dac00140ea90020c0b300090607000040eb0078
:102dbc00070607000040eb00050607000040eb008b
:102dcc000306070020d0bf0001060700140ea80060
:102ddc009099250011002000650807000080fa007a
:102dec00000006000000fa00140ea90060c0b30039
:102dfc00f7050700140ea800601220000100200047
:102e0c005b080700140ea90070ccb300f005070096
:102e1c00140ea80000002000c1a8200054080700d0
:102e2c000080fa00000006000000fa00140ea90051
:102e3c0060c0b300e6050700140ea8006012200065
:102e4c00010020004a080700140ea90080cdb30031
:102e5c00df0507000040eb00dd0507000040eb003c
:102e6c00db05070000c0eb00d9050700140ea80015
:102e7c0000002000211c20003d0807000080fa0003
:102e8c00000006000000fa00140ea90030c0b300c8
:102e9c00cf0507000040eb00cd0507000040eb001c
:102eac00cb0507000040eb00c905070000c0eb0094
:102ebc00c705070021f0b700140ea8000080fa0027
:102ecc00000006000000fa00807b200001002000ba
:102edc00308c8800418c8800a018210041c0b300c0
:102eec0001487800c018210081c0b3000148780067
:102efc00d018210051c0b30001487800e01821001f
:102f0c0081c1b30001487800f018210011cab30048
:102f1c00014878000019210011cab300014878005b
:102f2c001019210011cab3000148780020192100a2
:102f3c0011cab300014878003019210011cab3003e
:102f4c00014878004019210011cab30001487800eb
:102f5c006118210060002000f8fc07000080fa00d6
:102f6c00000006000000fa0020802800620707001d
:102f7c0000002000d1022000fd070700e08028009f
:102f8c005d07070000002000d1022000f8070700b1
:102f9c00e08128005807070000002000d102200023
:102fac00f3070700c0832800530707000000200028
:102fbc00d1022000ee070700908528004e0707007d
:102fcc0000002000211c2000e90707008087280052
:102fdc004907070000002000d1022000e407070089
:102fec00e08828004407070000002000d1022000e0
:102ffc00df070700a08e28003f0707000000200015
:10300c00d1022000da070700608f28003a0707007a
:10301c0000002000211c2000d5070700209028006c
:10302c003507070000002000211c2000d0070700f6
:10303c00709028003007070000002000d10220000b
:10304c00cb070700b09028002b0707000080fa0080
:10305c00000006000000fa0004eea80000002000aa
:10306c00211c2000c207070020802800220707002f
:10307c0000002000d1022000bd070700e0802800de
:10308c001d07070000002000d1022000b807070030
:10309c00709128001807070000002000d1022000c2
:1030ac00b307070050932800130707000000200007
:1030bc00d1022000ae070700609528000e0707001c
:1030cc0000002000d1022000a9070700509728001b
:1030dc000907070000002000d1022000a407070008
:1030ec00b09828000407070000002000d10220003f
:1030fc009f070700a08e2800ff0607000000200095
:10310c00211c20009a070700608f2800fa06070090
:10311c0000002000110e20009507070020902800c9
:10312c00f50607001c30ef0005003700e09c280076
:10313c00f1060700e08080000000e800e0808800d5
:10314c00e0808000e10f5000f8ff34000000200008
:10315c00413820008607070070902800e60607001b
:10316c00000020004138200081070700b0902800a3
:10317c00e106070000002000413820007c07070012
:10318c0004eea9000080fa00000006000400fa001a
:10319c000000eb00000f78000000eb001007980017
:1031ac001a30ef0008003700d08080008113210016
:1031bc00008040008040eb0001487800d080800007
:1031cc000000e800d0808800d1808000100320002f
:1031dc00808f5000f4ff340020818000e10f5000fc
:1031ec008d003a002430ef00880037002430ef00c7
:1031fc00210221009140780040c2b30080cf5000e2
:10320c0018003a0010002000100798001830ef004a
:10321c00140037002430ef00c08080002102210010
:10322c009140780082132100000041000148780091
:10323c00c08080000000e800c080880022d0bf0061
:10324c00ea4f500004003a000000eb001007980011
:10325c00010037000000000020818000e10f5000c9
:10326c00ecff32001e009000e10f5000f9ff32001d
:10327c00b013210090407800d0c4b30080cf500030
:10328c005a003a00c01321009040780030c4b300bb
:10329c0080cf500055003a008014210090407800f7
:1032ac0010c4b30080cf500040003a001a30ef0039
:1032bc000c003700d0808000d1808000f28040006c
:1032cc00821321008100410091407800a216210058
:1032dc000000410001487800d08080000000e80028
:1032ec00d0808800d0808000e90f5000f1ff3400be
:1032fc001a30ef000c003700d0808000d1808000a5
:10330c00ff80400082132100810041009140780031
:10331c00421721000000410001487800d080800055
:10332c000000e800d0808800d0808000ea0f5000b8
:10333c00f1ff34001a30ef000c003700d080800011
:10334c00d1808000d102b0008213210081004100a5
:10335c0091407800f21721000000410001487800ec
:10336c00d08080000000e800d0808800d0808000f1
:10337c00e40f5000f1ff3400207080004200de00aa
:10338c00614060000004a200614060000080fb000e
:10339c00610060004200dd0022708000b1ff2f0050
:1033ac008100610001007000207088001000200076
:1033bc00000f7800207080004300de006140600048
:1033cc000004a200614060000080fb00610060000e
:1033dc004300dd002270800071ff2f00810061002e
:1033ec000100700020708800050037008014210057
:1033fc008040eb000148780001003700000000001d
:10340c0020818000e10f500078ff32001e00780010
:10341c000000e000f9ff32000080fa000000060016
:10342c000000fa0028d0bf000080fb000001eb0078
:10343c00e10220006b02070029d0bf008080fb0056
:10344c0028d0bf000080fb000101780001032000a0
:10345c00b402070028d0bf000080fb00020120004e
:10346c00e10220005f0207000080fa000000060065
:10347c000000fa00054ea800148ea90004eea90065
:10348c0015eea80014cea900142ea90014aea900a4
:10349c0000002000d1022000b506070014aea800e1
:1034ac000080fa00000006000000fa00054ea9009a
:1034bc00148ea80004eea80015eea90014cea800e6
:1034cc00142ea80014aea900046ea900d4ff0700a6
:1034dc000040fe000080fa00000006000800fa0020
:1034ec0020079800310798006000b800008fbe00dc
:1034fc000400370012002000030020001e0f4100c2
:10350c005e9749002e009000be0090001e017800ce
:10351c009e019000800f5100818f5900f5ff3900fa
:10352c000080fa00000006000000fa008000200075
:10353c00801188003222ef00f02f2000c01188008b
:10354c0023c8a80031e2a8003342a800001d2100c6
:10355c00608e8800001d2100508e8800801d210087
:10356c00408e8800801d2100308e8800708e800077
:10357c000010a000708e8800708e80000090a0005b
:10358c00708e8800718e8000f0ef2f00008060003c
:10359c00708e8800718e8000e0ff2f00008060002c
:1035ac00708e88000080fa00000006000200fa000d
:1035bc000040eb00004f7800408e8000104f7800e8
:1035cc00408e80000000e800408e8800418e800014
:1035dc00001e2100808f500002003a00801d210047
:1035ec00408e8800418e8000308e8000808f50008d
:1035fc0003003a00708e80000010a000708e8800ce
:10360c00718e8000e0ff2f0000806000708e8800bb
:10361c001e4078000080fa00000006000600fa0048
:10362c00881f780010079800210798000000eb0015
:10363c00000f780009003700708e80006200600077
:10364c000000e0000a003a001e0090001e0440003a
:10365c00d6ff0700004c78001e0fe8002e009000eb
:10366c009e007800808f5000f3ff39000100370076
:10367c00000000001e0078004f0478000080fa0063
:10368c00000006000200fa00004f780023e8a900b1
:10369c00508e80001e487800508e80000000e8009c
:1036ac00508e8800518e8000801d2100808f50002c
:1036bc0002003a00001d2100508e8800718e80009f
:1036cc00f0df2f0000806000708e8800618e80001b
:1036dc00508e8000808f500003003a00708e800066
:1036ec000080a000708e880023e8a8000080fa00fb
:1036fc00000006000600fa00100798002107980049
:10370c000000eb00000f78000a003700718e80007b
:10371c0000102000008060000000e0000a003a0069
:10372c001e0090001e004000104078001e0fe800a4
:10373c00d4ff07002e0090009e007800808f500070
:10374c00f2ff390001003700000000001e00780075
:10375c000080fa00000006000200fa000000eb00f6
:10376c00000f7800718e8000001020000080600037
:10377c000000e000010032001e30a000718e8000bd
:10378c0000202000008060000000e00001003200fa
:10379c001e40a000708e8000610060000000e00000
:1037ac00010032001e00a000708e800062006000dc
:1037bc000000e000020032001e20a00001003700d3
:1037cc001e10a0001e0078000080fa000000060009
:1037dc000200fa00000f7800408e80009e0040002e
:1037ec00001e2100808f500009003600408e8000a2
:1037fc009e004000001e21000000ea0000804000f6
:10380c00811d21000080400010407800030037002b
:10381c00408e80001e004000104078000080fa00ae
:10382c00000006000000fa00708e8000610060004d
:10383c000000e0000f003a00418e8000308e8000c6
:10384c00808f500005003600408e8000800078008c
:10385c00308e80000080500007003700408e8000c2
:10386c0080007800308e800000805000680040009e
:10387c00010037000000eb000080fa000000060099
:10388c000000fa00718e80000010200000806000a3
:10389c000000e0000f003a00618e8000508e800026
:1038ac00808f500005003600608e8000800078000c
:1038bc00508e80000080500007003700608e800022
:1038cc0080007800508e800000805000680040001e
:1038dc00010037000000eb000080fa000000060039
:1038ec000000fa00708e80000000d1006140600082
:1038fc000080fb0000f0a7000000ea000000ea00d6
:10390c004f00de00004078000080fa000000060046
:10391c000000fa00708e80004800de0061406000fc
:10392c000080fb0000f0a7000000ea000000ea00a5
:10393c004f00de00004078000080fa000000060016
:10394c000000fa00901180000080fa0000000600d0
:10395c000000fa0000002100011e21001100980057
:10396c0000002100011e2100010878000000210048
:10397c00a00090000110a000210098000000210080
:10398c0020019000e1ff2f008100610021009800d0
:10399c00000021008040eb006140980030122000b4
:1039ac002010880000002800301088000822ef004a
:1039bc000228a9002228a8000080fa0000000600b6
:1039cc000200fa0000002100e0409000014f780056
:1039dc001e4078000080fa00000006000000fa008b
:1039ec006080800066004000608088000ad0bf00c4
:1039fc000040e9000af0b7000ad0bf000004e00064
:103a0c0003003a004000200040808800020037008c
:103a1c0010002000408088000080fa0000000600a2
:103a2c000200fa00000f78000642a80070808000a7
:103a3c00200090000000e000030032007080800045
:103a4c00200090001e0878000830ef000080fa007b
:103a5c00000006000800fa00000f780021479800cb
:103a6c0022079800330798000000210020009000e6
:103a7c00610060000000e0000a003a00ae01900016
:103a8c002e4190009e007800c01e21007800070097
:103a9c003e019000c11e210010c0b3001f000700a2
:103aac00030037003e0090008000eb000108780016
:103abc000080fa00000006000800fa00000f7800f1
:103acc002147980022079800330798000000210036
:103adc0020009000610060000000e0000a003a0045
:103aec00ae0190002e4190009e007800601e2100d7
:103afc00470007003e019000611e210010c0b3007a
:103b0c0006000700030037003e0090008000eb0029
:103b1c00010878000080fa00000006000600fa0098
:103b2c00004f780011079800220798000000210030
:103b3c0020009000610060000000e0002f003a00bf
:103b4c002e009000110020000108780000002100d8
:103b5c00100078009e0090001100980000002100d9
:103b6c00100078001e48780000002100100078003a
:103b7c00ae00900021009800000021001000780099
:103b8c00e600400000002100010878000000210040
:103b9c0090007800601e2100808f500003003a00d6
:103bac0000002100011e2100010878000000210006
:103bbc0020019000d1ff2f008100610021009800ae
:103bcc0000002100900090000000210010007800ff
:103bdc00808f500004003a0000002100a0009000eb
:103bec000100a00021009800408080000000e0004f
:103bfc0005003a000228a800030037002e009000b0
:103c0c008000eb00010878000080fa00000006003c
:103c1c000800fa00000f780011079800424798003e
:103c2c00330798003e0090000000400080007800b0
:103c3c001e007800010878001e0078001000780043
:103c4c00800078000100a0001e00780001087800b8
:103c5c001e007800ce409000214098001e00780095
:103c6c009e009000210098000080fa0000000600e1
:103c7c000800fa00000f78001107980042479800de
:103c8c00330798003e009000000040008000780050
:103c9c001e007800010878001e007800ce409000cd
:103cac00214098001e0078009e0090002100980092
:103cbc000080fa00000006000000fa00000021005d
:103ccc00200090000000d100614060000080fb00eb
:103cdc0000f0a7000000ea000000ea004f00de0040
:103cec00004078000080fa00000006000000fa0096
:103cfc000000210020009000614060000080fb006b
:103d0c0000f0a7000000ea000000ea004f00de000f
:103d1c00004078000080fa00000006000400fa0061
:103d2c00204798007df40700a5f407000000000070
:103d3c0030108000610060000000e000fcff3a00e1
:103d4c000228a9002e40900087f407000000000014
:103d5c0010408000620060000000e000fcff3200b8
:103d6c004110800000002800008060000000e0008e
:103d7c000300320010c0b300004f7800020037007f
:103d8c000040eb00004f78000228a9008ef40700d9
:103d9c000000000030108000640060000000e000b3
:103dac00fcff3a000228a9001e4078000080fa00af
:103dbc00000006000400fa0050092000000f7800f3
:103dcc0000222f0010079800f0f02f0032f40700ab
:103ddc009e0078001e00900074f407000080fa002a
:103dec00000006000400fa00004f7800114798000c
:103dfc002247980049f4070071f407000000000006
:103e0c0030108000610060000000e000fcff3a0010
:103e1c000228a9001e40780053f40700000000009f
:103e2c0010408000620060000000e000fcff3200e7
:103e3c004110800000002800008060000000e000bd
:103e4c0002003200f00f2000340037000228a900d5
:103e5c001e40900044f40700000000001040800059
:103e6c00620060000000e000fcff32002070800067
:103e7c004300de00614060000004a200614060006d
:103e8c000080fb00610060004300dd0022708000b8
:103e9c0071ff2f008100610001007000207088000c
:103eac004110800000002800008060000000e0004d
:103ebc0002003200e00f2000180037000228a90091
:103ecc002e40900028f407000000000010408000f5
:103edc00620060000000e000fcff32004110800036
:103eec0000002800008060000000e00002003200aa
:103efc00d00f2000090037000228a90032f4070077
:103f0c000000000030108000640060000000e00041
:103f1c00fcff3a000228a9000000eb000080fa0028
:103f2c00000006000600fa00204798003147980070
:103f3c0042479800f9f3070021f407000000000045
:103f4c0030108000610060000000e000fcff3a00cf
:103f5c000228a9002e40900003f407000000000086
:103f6c0010408000620060000000e000fcff3200a6
:103f7c004110800000002800008060000000e0007c
:103f8c000200320030c6b3003d0037000228a90001
:103f9c003e409000f4f30700000000001040800049
:103fac00620060000000e000fcff32004110800065
:103fbc0000002800008060000000e00002003200d9
:103fcc0020c6b3002e0037000228a900faf3070020
:103fdc000000000030108000620060000000e00073
:103fec00fcff3a000228a9004e409000def30700c7
:103ffc000000000010408000620060000000e00043
:10400c00fcff32004110800000002800008060009e
:10401c000000e0000200320010c6b30018003700a8
:10402c000228a900caf30700004f78000000000026
:10403c0010408000620060000000e000fcff3200d5
:10404c000228a900d6f307000000000010408000f1
:10405c00620060000000e000fcff32000228a900b2
:10406c00d9f30700000000003010800064006000ed
:10407c000000e000fcff3a000228a9001e40780076
:10408c000080fa00000006000000fa00c3e8a80057
:10409c0000000000000000000080fa000000060094
:1040ac000200fa00000f780021028000200f20008f
:1040bc00008060001e007000200288000080fa0062
:1040cc00000006000000fa00d601070010000700ef
:1040dc0037020700b8000700de020700550307008f
:1040ec005c010700bb0307000ffd070031ff070051
:1040fc007903070086020700f1f70700e2ff0700cb
:10410c0000022000e6ff07000080fa000000060015
:10411c000000fa0000042300203a88004827ef0032
:10412c004e27ef00e0032000303a88004420a9001d
:10413c0044c0a90044e0a9004480a900120020005a
:10414c0080072000a10920003374200080497800ea
:10415c008149780082497800120020006004200018
:10416c007105200023742000804978008149780073
:10417c008249780000000000103a80006100600065
:10418c000000e000fcff3a000080fa00000006008e
:10419c000000fa00003a80000080fa0000000600df
:1041ac000200fa00faff0700000f78001e007800ea
:1041bc00240007000004e000020032000000280088
:1041cc00710007001e0078002a0007000004e000c0
:1041dc0002003200000024006b0007001e00780073
:1041ec00320007000004e000020032000020200032
:1041fc00650007001e0078003a0007000004e0008c
:10420c0002003200000820005f0007001e0078004a
:10421c00420007000004e00002003200000420000d
:10422c00590007001e0078004a0007000004e00057
:10423c000200320000012000530007000080fa0049
:10424c00000006000400fa00100798000040eb0084
:10425c00004f78001e0090000000e00002003d00be
:10426c0010c0b300004f78001e4078000080fa00a8
:10427c00000006000400fa00100798000040eb0054
:10428c00004f78009e009000000024000080600029
:10429c000000e0000200320010c0b300004f7800b4
:1042ac001e4078000080fa00000006000400fa00ae
:1042bc00100798000040eb00004f78009e00900023
:1042cc0000202000008060000000e00002003200ae
:1042dc0010c0b300004f78001e4078000080fa0038
:1042ec00000006000400fa00100798000040eb00e4
:1042fc00004f78009e0090000008200000806000b5
:10430c000000e0000200320010c0b300004f780043
:10431c001e4078000080fa00000006000400fa003d
:10432c00100798000040eb00004f78009e009000b2
:10433c0000042000008060000000e0000200320059
:10434c0010c0b300004f78001e4078000080fa00c7
:10435c00000006000400fa00100798000040eb0073
:10436c00004f78001e009000700060000000e0001c
:10437c000200320010c0b300004f78001e407800dd
:10438c000080fa00000006000200fa00000f78001e
:10439c009e80ea00003a800000806000003a8800ad
:1043ac000080fa00000006000000fa004027ef0031
:1043bc000080fa00000006000000fa00a0132000a4
:1043cc00101288001000200020128800c000280065
:1043dc00001288000080fa00000006000400fa00b9
:1043ec00000f7800110798000000000000128000f8
:1043fc00620060000000e000fcff3a001e00780044
:10440c00104078000080fb00401288000000000083
:10441c000112800000022000008060000000e0001b
:10442c00fbff3a0040128000804078001e00900094
:10443c00014878000080fa00000006001800fa001d
:10444c00100f9800210f9800320f98000000eb001d
:10445c00000f78000000eb00100798000000eb0044
:10446c00700798000000eb00000f9800100020006f
:10447c00600798001e0890000000e00005003a005c
:10448c000000eb00500798007000470020079800d0
:10449c0004003700ee009000510798009e08900031
:1044ac00210798003e0890000000e00005003a004b
:1044bc000000eb00400798006e00470030079800a2
:1044cc0005003700ee00900041079800be089000f0
:1044dc0031079800000000000012800062006000ac
:1044ec000000e000fcff3a001d00370000128000c5
:1044fc00620060000000e00009003a002e0090000d
:10450c00104078000080fb0040128800ae00900044
:10451c005e00900000804000200798001e0fe8000d
:10452c000112800000022000008060000000e0000a
:10453c000b003a0040128000804078003e00900052
:10454c0001487800be0090004e00900000804000b2
:10455c00300798001e0090000000e800100798003b
:10456c002e0890009e007800808f5000dfff3900ed
:10457c001000370001128000000220000080600053
:10458c000000e0000b003a004012800080407800f0
:10459c003e00900001487800be0090004e00900054
:1045ac0000804000300798001e0090000000e800da
:1045bc00100798009e0090002e089000808f5000ed
:1045cc00ecff39001e0078000080fa0000000600a5
:1045dc000400fa00204798000e80e8008e00780056
:1045ec007eff07001e4078000080fa0000000600e5
:1045fc000600fa00000f78001107980022079800b7
:10460c002e0190009e0090001e0078008bff07008a
:10461c000080fa00000006000000fa001112800071
:10462c0000402000008060000000e00002003a0022
:10463c000000eb0001003700100020000080fa00a1
:10464c00000006000000fa00001280000080fa0052
:10465c00000006000000fa000a21ef00c013200041
:10466c00700888000621ef00008026006008880092
:10467c0080032800800888000108a9002108a800f0
:10468c00401f21008040eb00014878000080fa00b8
:10469c00000006000400fa00008fbe001e00780027
:1046ac00600888001e0078009e0090004008de0024
:1046bc0000007800700888000080fa0000000600f6
:1046cc000400fa000080eb008080eb00008fbe003d
:1046dc00700880008000eb00c001dd0002002000ab
:1046ec00600880008000eb00001f710001977100d2
:1046fc001e0078009e0090000080fa00000006006a
:10470c000400fa00008fbe001e0078009e0090008e
:10471c004008de0000007800400888001e00780089
:10472c00300888000080fa00000006000800fa003b
:10473c000080eb008080eb00008fbe003108800011
:10474c002107980041088000310798003e00900036
:10475c008000eb00c001dd00020020002e00900064
:10476c008000eb00001f7100019771001e007800a3
:10477c009e0090000080fa00000006000000fa0085
:10478c0010002000b08188000080fa0000000600b4
:10479c000000fa00401f21008040eb000148780027
:1047ac002108a80011e1a8000080fa000000060012
:1047bc000000fa0011e1a9002108a9000080fa000c
:1047cc00000006000200fa00401f2100104f780084
:1047dc001e4078000004e00003003200401f21005e
:1047ec008040eb00014878001e4078000080fa0001
:1047fc00000006000000fa00501f21001040780055
:10480c000080fb000080fa00000006000000fa00a7
:10481c00501f21008040eb00014878000080fa0016
:10482c00000006000000fa00c04020002070880044
:10483c0010512800a07088002020200020718800d2
:10484c003020200000708800c0a8270080708800ed
:10485c00501b2000007188000c2eef001c2eef0066
:10486c002c2eef000a2eef001a2eef002a2eef004e
:10487c00062eef00162eef00262eef00c0002000b3
:10488c007070880000302000f070880060002000fc
:10489c0070718800113a8000f00b200000816000dc
:1048ac0060042000710520002374200080497800ea
:1048bc00814978008249780001358000f00f28008a
:1048cc008080600000e0220001007000003588004c
:1048dc00b136800000f82f008080600000032000bb
:1048ec0001007000b03688006134800000fc2f009d
:1048fc0000806000e000b300603488002136800046
:10490c0000f82f0080806000800320000100700000
:10491c002036880051348000f00f2c00808060001d
:10492c0000b0210001007000503488007134800008
:10493c00f00f2c00008060000080a0007034880014
:10494c00a136800000f82f008080600070032000ea
:10495c0001007000a03688004134800000fc2f005c
:10496c00008060003000b300403488003136800095
:10497c0000f82f0080806000b00220000100700061
:10498c0030368800103a8000000178000260a000e8
:10499c0060042000710520002374200080497800f9
:1049ac0081497800824978000080fa0000000600f6
:1049bc000000fa0001438000f08f2f00008060009f
:1049cc000080a0000043880071428000f0ff2800a6
:1049dc000080600000c0a00070428800714280001e
:1049ec00f08f2f00008060000080a00070428800d3
:1049fc0081428000f0ff28000080600000c0a00011
:104a0c008042880081428000f08f2f00008060007f
:104a1c000080a0008042880001438000f0f82f0045
:104a2c00008060000040a0000043880031428000fc
:104a3c0080ff2f00008060000000a0003042880042
:104a4c0021428000f0ff28000080600000c0a00020
:104a5c00204288000142800080ff2f00008060000f
:104a6c000000a00000428800d1428000f0f82f0026
:104a7c00008060000040a000d0428800d14280003d
:104a8c00f08f2f00008060000080a000d0428800d2
:104a9c005142800080ff2f00008060000000a000c9
:104aac005042880041428000f0f82f0000806000e6
:104abc000040a000404288004142800080ff2f004f
:104acc00008060000000a00040428800314280005d
:104adc00f08f2f00008060000080a0003042880022
:104aec0011428000f0ff28000080600000c0a00090
:104afc001042880001428000f0ff28000080600016
:104b0c0000c0a000004288000080fa0000000600ef
:104b1c000000fa000021ef0000102e0010088800a1
:104b2c0000032800200888000068a9002068a8005d
:104b3c00201f21008040eb00014878000080fa0023
:104b4c00000006000200fa00000f78009e007800ba
:104b5c0011088800201f21008040eb0001487800dc
:104b6c000080fa00000006000000fa001008800027
:104b7c000080fa00000006000200fa00000f780026
:104b8c009e00780001088800201f21008040eb0067
:104b9c00014878000080fa00000006000000fa00ce
:104bac00000880000080fa00000006000000fa00f7
:104bbc0010002000908188000080fa0000000600a0
:104bcc000000fa00201f21008040eb000148780013
:104bdc002068a80005e1a8000080fa00000006008b
:104bec000000fa0005e1a9002068a9000080fa0085
:104bfc00000006000200fa00201f2100104f780070
:104c0c001e4078000004e00003003200201f210049
:104c1c008040eb00014878001e4078000080fa00cc
:104c2c00000006000000fa00301f21001040780040
:104c3c000080fb000080fa00000006000000fa0073
:104c4c00301f21008040eb00014878000080fa0002
:104c5c00000006000000fa0080002000001188000f
:104c6c002222ef00f00320004011880021e2a8006e
:104c7c002342a8000080fa00000006000000fa00a1
:104c8c000000000010118000610060000000e000d6
:104c9c00fcff320010118000620060000000e00098
:104cac00010032002222a90030118000004078005f
:104cbc000080fa00000006000200fa00004f7800a5
:104ccc000000000011118000002020000080600016
:104cdc000000e000fbff3a001e80fb002011880062
:104cec000080fa00000006000000fa00101180009d
:104cfc000080fa00000006000400fa00100798007b
:104d0c009e009000010f78000b003700000000009f
:104d1c001111800000202000008060000000e000e5
:104d2c00fbff3a001e007800104078000000fb00ea
:104d3c00201188001e0fe8001e007800104078003b
:104d4c000004e000f1ff3a000080fa0000000600c9
:020000040000fa
:104d5c00a611000020000000800000002c100000b4
:104d6c000200000082000000ffff000000120000a3
:104d7c0000020000800000002e1000000200000065
:104d8c0080000000301000000200000080000000d5
:104d9c00c61100001a000000800000002210000064
:104dac000600000080000000e0110000120000006e
:104dbc0080000000001000001800000080000000bf
:104dcc00f211000002000000800000003210000010
:104ddc0002000000820000000100000034100000fe
:104dec000200000080000000381000006e0100007e
:104dfc008000000028100000040000008200000069
:104e0c00a6a7010000000000181000000a00000016
:104e1c0080000000f411000002000000800000007f
:104e2c0036100000020000008200000001000000ab
:044e3c000000000072
:020000040000fa
:104e40000000fa0080002000801288005222ef004b
:104e500070002000c012880051e2a8005342a80050
:104e60000080fa00000006000000fa0000000000c8
:104e700090128000610060000000e000fcff320042
:104e800090128000620060000000e000010032002b
:104e90005222a900b0128000004078000080fa0081
:104ea000000006000200fa00004f78000000000039
:104eb0009112800000202000008060000000e000cf
:104ec000fbff3a001e80fb00a01288000080fa0061
:104ed000000006000000fa00901280000080fa0036
:104ee000000006000000fa000002220000588800be
:104ef000600420001058880070002000705888005e
:104f00000000210020588800062bef000088a9002f
:104f1000000220008058880020022000905888005d
:104f200070002000f058880000002100a058880080
:104f3000162bef0001c8a90021c8a800202bef0004
:104f4000222bef002e2bef000000210020598800bb
:104f5000262bef000308a900302bef00322bef00c7
:104f60003e2bef0000002100a0598800362bef00f7
:0c4f70000488a9000080fa000000060080
:020000040000fa
:104f7c00f03fb1000180b10006003500ee030900de
:104f8c0000000000403fb1000180b100fbff3d007c
:104f9c001000b000203fb000020035000080090076
:084fac000000000000000600f7
:020000040000fa
:104fb400000f78009e00780061818800ffff3700b1
:104fc4000000fa00601a210080077800e01b21002d
:104fd400000188000080fa00000006000000fa00ca
:084fe4000080fa000000060045
:020000040000fa
:020000040002f8
:04abe000cfff0000a3
:020000040000fa
:020000040002f8
:04abe400ffff00006f
:020000040000fa
:020000040002f8
:04abe8007fff0000eb
:020000040000fa
:020000040002f8
:04abec007bff0000eb
:020000040000fa
:020000040002f8
:04abf000f8ff00006a
:020000040000fa
:020000040002f8
:04abf400ffff00005f
:00000001FF
