:020000040000fa
:080000000002040000000000f2
:020000040000fa
:04000800720300007f
:020000040000fa
:04000c008403000069
:020000040000fa
:040010009c0300004d
:020000040000fa
:040014007a0300006b
:020000040000fa
:040018008c03000055
:020000040000fa
:04001c009403000049
:020000040000fa
:04002000a403000035
:020000040000fa
:040024007412000052
:020000040000fa
:0400280008100000bc
:020000040000fa
:04002c00741200004a
:020000040000fa
:040030007412000046
:020000040000fa
:04003400c0100000f8
:020000040000fa
:04003800741200003e
:020000040000fa
:04003c00741200003a
:020000040000fa
:040040007412000036
:020000040000fa
:040044007412000032
:020000040000fa
:04004800061100009d
:020000040000fa
:04004c00741200002a
:020000040000fa
:040050007412000026
:020000040000fa
:0400540004040000a0
:020000040000fa
:04005800ac030000f5
:020000040000fa
:04005c00741200001a
:020000040000fa
:040060009e080000f6
:020000040000fa
:040064007412000012
:020000040000fa
:04006800741200000e
:020000040000fa
:04006c00820d000001
:020000040000fa
:040070007412000006
:020000040000fa
:040074007412000002
:020000040000fa
:04007800d40f0000a1
:020000040000fa
:04007c0074120000fa
:020000040000fa
:0400800074120000f6
:020000040000fa
:0400840074120000f2
:020000040000fa
:0400880074120000ee
:020000040000fa
:04008c0074120000ea
:020000040000fa
:0400900074120000e6
:020000040000fa
:0400940074120000e2
:020000040000fa
:0400980074120000de
:020000040000fa
:04009c00f00f000061
:020000040000fa
:0400a000360900001d
:020000040000fa
:0400a400de08000072
:020000040000fa
:0400a80074120000ce
:020000040000fa
:0400ac0074120000ca
:020000040000fa
:0400b00096080000ae
:020000040000fa
:0400b4003808000008
:020000040000fa
:0400b80074120000be
:020000040000fa
:0400bc0074120000ba
:020000040000fa
:0400c00074120000b6
:020000040000fa
:0400c40074120000b2
:020000040000fa
:0400c80074120000ae
:020000040000fa
:0400cc0074120000aa
:020000040000fa
:0400d00074120000a6
:020000040000fa
:0400d40074120000a2
:020000040000fa
:0400d800741200009e
:020000040000fa
:0400dc00741200009a
:020000040000fa
:0400e0007412000096
:020000040000fa
:0400e4007412000092
:020000040000fa
:0400e800741200008e
:020000040000fa
:0400ec00741200008a
:020000040000fa
:0400f0007412000086
:020000040000fa
:0400f4007412000082
:020000040000fa
:0400f800741200007e
:020000040000fa
:0400fc0020100000d0
:020000040000fa
:0401000028100000c3
:020000040000fa
:040104007412000071
:020000040000fa
:04010800741200006d
:020000040000fa
:04010c007412000069
:020000040000fa
:040110007412000065
:020000040000fa
:040114007412000061
:020000040000fa
:04011800741200005d
:020000040000fa
:04011c007412000059
:020000040000fa
:040120007412000055
:020000040000fa
:040124007412000051
:020000040000fa
:04012800741200004d
:020000040000fa
:04012c0022080000a5
:020000040000fa
:040130006c0d000052
:020000040000fa
:040134007412000041
:020000040000fa
:04013800741200003d
:020000040000fa
:04013c007412000039
:020000040000fa
:040140007412000035
:020000040000fa
:040144007412000031
:020000040000fa
:04014800741200002d
:020000040000fa
:04014c007412000029
:020000040000fa
:040150007412000025
:020000040000fa
:040154007412000021
:020000040000fa
:04015800741200001d
:020000040000fa
:04015c007412000019
:020000040000fa
:040160007412000015
:020000040000fa
:040164007412000011
:020000040000fa
:04016800741200000d
:020000040000fa
:04016c0088100000f7
:020000040000fa
:040170009e100000dd
:020000040000fa
:040174003010000047
:020000040000fa
:0401780074120000fd
:020000040000fa
:04017c0074120000f9
:020000040000fa
:0401800074120000f5
:020000040000fa
:040184005e12000007
:020000040000fa
:04018800aa110000b8
:020000040000fa
:04018c00521100000c
:020000040000fa
:0401900074120000e5
:020000040000fa
:0401940074120000e1
:020000040000fa
:0401980074120000dd
:020000040000fa
:04019c0074120000d9
:020000040000fa
:0401a00074120000d5
:020000040000fa
:0401a40074120000d1
:020000040000fa
:0401a80074120000cd
:020000040000fa
:0401ac0074120000c9
:020000040000fa
:0401b00074120000c5
:020000040000fa
:0401b40074120000c1
:020000040000fa
:0401b80074120000bd
:020000040000fa
:0401bc0074120000b9
:020000040000fa
:0401c00074120000b5
:020000040000fa
:0401c40074120000b1
:020000040000fa
:0401c80074120000ad
:020000040000fa
:0401cc0074120000a9
:020000040000fa
:0401d00074120000a5
:020000040000fa
:0401d40074120000a1
:020000040000fa
:0401d800741200009d
:020000040000fa
:0401dc007412000099
:020000040000fa
:0401e0007412000095
:020000040000fa
:0401e4007412000091
:020000040000fa
:0401e800741200008d
:020000040000fa
:0401ec007412000089
:020000040000fa
:0401f0007412000085
:020000040000fa
:0401f4007412000081
:020000040000fa
:0401f800741200007d
:020000040000fa
:0401fc007412000079
:020000040000fa
:040200007412000074
:020000040000fa
:040204007412000070
:020000040000fa
:04020800741200006c
:020000040000fa
:04020c007412000068
:020000040000fa
:040210007412000064
:020000040000fa
:040214007412000060
:020000040000fa
:04021800741200005c
:020000040000fa
:04021c007412000058
:020000040000fa
:040220007412000054
:020000040000fa
:040224007412000050
:020000040000fa
:04022800741200004c
:020000040000fa
:04022c007412000048
:020000040000fa
:040230007412000044
:020000040000fa
:040234007412000040
:020000040000fa
:04023800741200003c
:020000040000fa
:04023c007412000038
:020000040000fa
:040240007412000034
:020000040000fa
:040244007412000030
:020000040000fa
:04024800741200002c
:020000040000fa
:04024c007412000028
:020000040000fa
:040250007412000024
:020000040000fa
:040254007412000020
:020000040000fa
:04025800741200001c
:020000040000fa
:04025c007412000018
:020000040000fa
:040260007412000014
:020000040000fa
:040264007412000010
:020000040000fa
:04026800741200000c
:020000040000fa
:04026c007412000008
:020000040000fa
:040270007412000004
:020000040000fa
:040274007412000000
:020000040000fa
:0402780074120000fc
:020000040000fa
:04027c0074120000f8
:020000040000fa
:0402800074120000f4
:020000040000fa
:100400006f2e22000eff24000e0188000000000065
:10041000000020000000e000020032000001200087
:1004200020028800140007007f0807000000e00099
:1004300003003a0080e72700010020000200370097
:100440000000200001002000810f70000100320038
:100450000f000700000020000000e0000200320052
:1004600000000200000000007c25020000000000e7
:100470000040da000000fe00607e20000000e00086
:1004800002003200002020009001880000000600d9
:10049000a1028800800478000000eb001f003700f4
:1004a000e284440054a0b4009905ba00e2844400f8
:1004b00054a0b4009906ba00e284440054a0b400e9
:1004c0000006eb00476fde00fd07b200ae018800ba
:1004d000636ce10003003a000ad801000000eb0061
:1004e0000e003700606ce10008003a00004deb00a0
:1004f0000a05e800020039003420ec000af0a000f0
:100500008b05e900f9ff3e00040037006168e10057
:10051000010032000086eb000b00070019c7ba008b
:100520000e04e0001905ba0003003a000a00e000da
:10053000dbff3a0000000600fe07b200ae028800b2
:100540008a047800f5ff37000cd0a300e20f4d00bd
:100550001c00390089027800354dba000a05e80010
:10056000020039003420ec000af0a0008b05e900fd
:100570000f003200254dba000a05e80002003900dc
:100580003420ec000af0a0008b05e90008003200de
:100590000c00e0000600320015cdba000a05e800a4
:1005a000020039003420ec000af0a0008b05e900bd
:1005b0008984e80054a0b4000b00e000e2ff3a0098
:1005c000000006009902ba00055d78008b05e9007d
:1005d000f7ff3200c82ade00055d78008b05e900d0
:1005e000f3ff32000c00e000f1ff320019ddba0029
:1005f000eeff3700d070040000000000c25e04006f
:1006000000000000ea5e040000000000d032040098
:10061000000000001834040000000000a2310400b3
:10062000000000000e48040000000000505f0400bd
:1006300000000000c04a0400000000006037040011
:1006400000000000264e0400000000008e39040067
:10065000000000001842040000000000323d0400c9
:1006600000000000f05a040000000000104b0400dd
:1006700000000000dc60040000000000663b040095
:1006800000000000803a0400000000004c3c040020
:10069000000000009651040000000000285f0400e4
:1006a0000000000018610400000000006860040001
:1006b00000000000403f0400000000001260040041
:1006c0000000000036360400000000006e5e0400ea
:1006d000000000003e60040000000000441304001d
:1006e000000000003600f800c028a9000000eb0060
:1006f000f43f07003600f800f63f0700c048a900a5
:1007000010002000ef3f07003600f800c068a90085
:1007100020002000eb3f07003600f800c088a90049
:1007200030002000e73f07003600f800c0a8a9000d
:1007300040002000e33f07003600f800c608a9008b
:1007400070002000df3f07003600f800c488a900d1
:10075000a0002000db3f0700809fbe000000fa00e1
:10076000a1fc800000202000008060000000e0006c
:10077000020032002188a900200037000188a9006a
:100780001900370090fc8000104078000080fb00ca
:100790002011880090fc80000000e80090fc880098
:1007a00091fc8000e0f92100808f500002003a00a7
:1007b00060f9210090fc8800a1fc8000f0ef2f0080
:1007c00000806000a0fc880091fc800080fc80001c
:1007d000808f500004003a00a0fc80000090a00030
:1007e000a0fc8800050037001111800000202000c7
:1007f000008060000000e000e2ff32000080fa00ac
:100800004f00be00004006003600f800809fbe008a
:10081000829fbe00849fbe00869fbe000200fa0039
:10082000301180000040780068f0b7001000200010
:10083000508388008106210091407800f0c4b30005
:1008400080cf500003003a00100020006083880031
:10085000d6003700810621009140780070c5b300b2
:1008600080cf500005003a0010002000008488006e
:1008700010c0b30069f0b700cc003700810621003a
:1008800091407800e0c4b30080cf500003003a00ec
:1008900010002000a0838800c400370081062100da
:1008a0009140780090c4b30080cf500003003a001c
:1008b00010002000b0838800bc00370081062100b2
:1008c00091407800d0c4b30080cf500003003a00bc
:1008d00010002000d0838800b4003700810621007a
:1008e0009140780010c5b30080cf500003003a005b
:1008f00010002000e0838800ac0037008106210052
:100900009140780090c5b30080cf500003003a00ba
:1009100010002000f0838800a400370068d0bf00da
:10092000e14f500003003a001000200010848800be
:100930009e0037008106210091407800a0c2b300dc
:1009400080cf500003003a0010002000208488006f
:10095000960037008106210091407800a0c3b300c3
:1009600080cf500003003a0010002000308488003f
:100970008e003700810621009140780000c3b3004b
:1009800080cf500004003a00a08480000000e800fe
:10099000a0848800850037008106210091407800fe
:1009a00010c6b30080cf500003003a0010002000b2
:1009b000408488007d003700810621009140780046
:1009c00010c2b30080cf500003003a001000200096
:1009d000508488007500370068d0bf00f04f500089
:1009e00003003a0010002000608488006f00370088
:1009f00068d0bf00e84f500003003a00100020000c
:100a000070848800690037008106210091407800d9
:100a1000b0c4b30080cf500003003a0010002000a3
:100a200070838800610037008106210091407800c2
:100a300000c5b30080cf500003003a001000200032
:100a4000808388005900370081062100914078009a
:100a500020c4b30080cf500003003a0010002000f3
:100a60009083880051003700810621009140780072
:100a7000b0c2b30080cf500003003a001000200045
:100a80008084880049003700810621009140780069
:100a900020c6b30080cf500003003a0010002000b1
:100aa000c08488004100370068d0bf00e34f500089
:100ab00003003a0010002000d08488003b0037007b
:100ac000810621009140780060c6b30080cf5000bd
:100ad00003003a0010002000e08488003300370053
:100ae000810621009140780010c5b30080cf5000ee
:100af00003003a0010002000f08488002b0037002b
:100b0000810621009140780050c5b30080cf50008d
:100b100003003a0010002000008588002300370001
:100b200068d0bf00f44f500003003a0010002000ce
:100b3000108588001d003700810621009140780053
:100b400030c9b30080cf500003003a0010002000ed
:100b5000208588001500370068d0bf00f24f500094
:100b600003003a0010002000308588000f00370095
:100b7000810621009140780060c2b30080cf500010
:100b800003003a001000200040858800070037006d
:100b9000810621009140780080c2b30080cf5000d0
:100ba00002003a0010002000508588006084800018
:100bb0000000e00014003200508480000000e000db
:100bc00011003200208580000000e0000e0032009d
:100bd000108480000000e0000b0032009084800050
:100be0000000e000080032009230ef00100020000a
:100bf000808588006a30ef00000d270000000100aa
:100c0000ac30ef0065003700608480000000e00039
:100c10001b003200508480000000e0001800320009
:100c2000d08480000000e0001500320010858000b4
:100c30000000e00012003200908480000000e0001c
:100c40000f0032009230ef001000200080858800f5
:100c50006a30ef008a30ef008c30ef009430ef0004
:100c6000a230ef008830ef008e30ef00100020003f
:100c700060858800000d2700000001004700370054
:100c8000608480000000e0001b003200508480007f
:100c90000000e00018003200d08480000000e00076
:100ca00015003200308580000000e00012003200a4
:100cb000908480000000e0000f0032009230ef00ce
:100cc00010002000908488006a30ef008a30ef0026
:100cd0008c30ef009430ef00a630ef008830ef004a
:100ce0008e30ef001000200060858800000d270086
:100cf0000000010029003700a08480000000e0000f
:100d000011003200408480000000e0000e0032003c
:100d1000708480000000e0000b003200a08580009d
:100d20000000e00008003200b430ef0010002000a6
:100d3000908588006a30ef00bc30ef00000d27007e
:100d40000000010015003700c0828000e10f500054
:100d500012003a0060848000e10f50000f003a005a
:100d600050858000e10f50000c003a005083800055
:100d70000000e000090032006a30ef005830ef0058
:100d80008c30ef00aa30ef00be30ef0010002000e2
:100d9000b0828800000d27000000010080858000df
:100da0000000e0004d003200508380000000e000b1
:100db0004a0032006a30ef00d085800081062100b1
:100dc00091407800a2ef2100000041000148780026
:100dd000d1858000f0082000808f50003b00360055
:100de0008a30ef008c30ef009430ef008230ef005b
:100df0008830ef008e30ef00a430ef00c070ef00bd
:100e0000b030ef00ba30ef000a003700d085800024
:100e1000a1ef21000080400090407800c0d0bf00ca
:100e200000c04000c0f0b700d08580000000e8009e
:100e3000d0858800d1858000f0082000808f500088
:100e4000f2ff3600ba30ef00010c2100914078002b
:100e500050cbb30000c04000c0f0b700a0f82100a4
:100e600090407800c0d0bf0080cf50000300320017
:100e7000100020007085880014003700ae30ef00ad
:100e800010002000c0858800ba30ef000b0037004a
:100e9000d0858000d1858000a2ef21008100410033
:100ea000914078006225210000004100014878004f
:100eb000d08580000000e800d0858800d1858000c2
:100ec000f0082000808f5000f1ff3600d0858000b0
:100ed0000000e800d085880052003700908580002f
:100ee0000000e0001b003200508380000000e000a2
:100ef000180032006a30ef00e08580008106210092
:100f0000914078000225210000004100014878004e
:100f1000e0858000e40f50000a003600b430ef0096
:100f20008a30ef008c30ef009430ef008230ef0019
:100f30008830ef00bc30ef00b230ef00100020002e
:100f4000b0858800e08580000000e800e08588002a
:100f500034003700b08280000000e0003100320031
:100f6000508380000000e0002e0032006a30ef0065
:100f7000f085800081062100914078008180fb008f
:100f800000014000c0ee210000004100010878008f
:100f9000f08580000000e800f0858800f085800082
:100fa000e30f50001f0036005630ef000000eb004a
:100fb000000f78000000eb00000f7800c170ef0018
:100fc0000a0037001e00780080004000c0ee2100bb
:100fd000008040001000780080407800c1d0bf0041
:100fe00000c04000c1f0b7001e0fe8001e007800ee
:100ff000e20f5000f3ff3600c1d0bf000080fb00bd
:101000008002b0008000780090f78000808f500050
:1010100003003a0010002000d08288000100370051
:101020005a30ef000168a9000080fa004f03be00ab
:101030004f02be004f01be004f00be003600f90057
:1010400000400600801f78000000fa0010118000a8
:10105000620060000000e000010032002222a900ce
:101060000828a9000080fa004f0078000040060020
:101070003600f800809fbe00829fbe00849fbe00a5
:10108000869fbe000000fa00512080000002200070
:10109000008060000000e000160032005120800057
:1010a00000002200008060000000e000020032002a
:1010b000fe2f07000ba4a900512080000000210092
:1010c000008060000000e00002003200fa2f0700fc
:1010d0000b84a90051208000008020000080600067
:1010e0000000e00002003200f62f07000b64a900a8
:1010f0000aa4a90050208000620060000000e00007
:10110000020032000a24a900f12f07000468a90098
:101110000080fa004f03be004f02be004f01be0028
:101120004f00be003600f900004006000000fa0043
:101130000448a9000080fa00004006003600f800cc
:10114000809fbe00829fbe00849fbe00869fbe001f
:101150000000fa0001c8a900207080004200de00f3
:10116000614060000004a200614060000080fb005c
:10117000610060004200dd0022708000b1ff2f009e
:10118000810061000100700020708800c0ed210026
:10119000a730070010002000708a88006230070026
:1011a0000080fa004f03be004f02be004f01be0098
:1011b0004f00be003600f90000400600809fbe00d0
:1011c0000000fa0071128100002020000080600001
:1011d0000000e0000200320023e8a90020003700f0
:1011e00003e8a90019003700601281001040780060
:1011f0000080fb00a0118800601281000000e80060
:10120000601289006112810080252200808f5000c9
:1012100002003a000025220060128900711281004c
:10122000f0ef2f00008060007012890061128100d1
:1012300050128100808f500004003a00701281002b
:101240000090a00070128900050037009111800005
:1012500000202000008060000000e000e2ff32007b
:101260000080fa004f00be0000400600809fbe00d4
:10127000821f78003200f8003400f80010002000cf
:10128000a0018800002020009001880000000000dc
:101290000200fa00b011800000407800c4f0b700ee
:1012a000b011800000407800c5f0b70010002000a9
:1012b000a0868800510c21009140780040c2b30004
:1012c00080cf500003003a0010002000b086880054
:1012d00041003700510c210091407800e0c4b30078
:1012e00080cf500003003a0010002000c086880024
:1012f00039003700510c21009140780070c4b300d0
:1013000080cf500003003a0010002000d0868800f3
:1013100031003700510c210091407800d0c4b30057
:1013200080cf500003003a0010002000f0868800b3
:1013300029003700510c21009140780020c5b300ee
:1013400080cf500003003a00100020000087880082
:1013500021003700510c21009140780090c5b30066
:1013600080cf500003003a00100020001087880052
:1013700019003700510c21009140780030c4b300af
:1013800080cf500003003a00100020002087880022
:1013900011003700c5d0bf00e14f500003003a00f4
:1013a00010002000308788000b003700c5d0bf0038
:1013b000ea4f500003003a001000200040878800e8
:1013c00005003700c5d0bf00ed4f500002003a00c5
:1013d0001000200050878800b1868000d0868000f1
:1013e00080806000c0868000808060000087800070
:1013f00080806000f0868000808060002087800010
:10140000008060000000e00092013200d630ef0062
:10141000da30ef00d830ef00e030ef00de30ef00e0
:10142000e430ef00ea30ef00e830ef001000200079
:10143000708688001000200090868800ca30ef0077
:10144000207080004300de00614060000004a200c4
:10145000614060000080fb00610060004300dd002f
:101460002270800071ff2f00810061000100700078
:10147000207088000000eb00000f7800c0202200e0
:101480009040780010c4b30080cf500021013a0092
:10149000608980000000e0001e013a00100020007a
:1014a000808688000000eb00000f780009003700fc
:1014b0009e0078006e8040000120220000804000e5
:1014c00090407800704c21001e00400001487800d8
:1014d0001e0fe8001e007800e80f5000f4ff3400f3
:1014e0000000eb00000f7800090037009e00780034
:1014f0007b80400001202200008040009040780066
:10150000104d21001e004000014878001e0fe80029
:101510001e007800e90f5000f4ff34000000eb00db
:10152000000f780009003700910220001e80400063
:10153000012022000080400090407800204e2100d1
:101540001e004000014878001e0fe8001e007800d1
:10155000e20f5000f4ff3400f023220090407800a6
:1015600010c4b30080cf50003d003a000000eb00f3
:10157000000f780009003700f10220001e804000b3
:10158000012022000080400090407800504e210051
:101590001e004000014878001e0fe8001e00780081
:1015a000e50f5000f4ff34000000eb00000f78005e
:1015b00009003700610320001e8040000120220046
:1015c0000080400090407800003021001e00400064
:1015d000014878001e0fe8001e007800e10f50005f
:1015e000f4ff34000000eb00000f78000900370022
:1015f000810320001e804000012022000080400066
:1016000090407800e02f21001e0040000148780043
:101610001e0fe8001e007800e10f5000f4ff3400b8
:101620000000eb00000f780009003700a103200044
:101630001e80400001202200008040009040780081
:10164000c02f21001e004000014878001e0fe80056
:101650001e007800e10f5000f4ff34002d00370029
:101660000000eb00000f78000900370001032000a4
:101670001e80400001202200008040009040780041
:10168000003021001e004000014878001e0fe800d5
:101690001e007800e10f5000f4ff34000000eb0062
:1016a000000f780009003700210320001e80400051
:1016b000012022000080400090407800e02f2100af
:1016c0001e004000014878001e0fe8001e00780050
:1016d000e10f5000f4ff34000000eb00000f780031
:1016e00009003700410320001e8040000120220035
:1016f0000080400090407800c02f21001e00400074
:10170000014878001e0fe8001e007800e10f50002d
:10171000f4ff34000000eb00000f780008003700f1
:101720001e80e800012022000080400090407800e8
:10173000203021001e004000014878001e0fe80004
:101740001e007800e10f5000f5ff34000000eb00b0
:10175000000f7800090037009e0078006480400088
:10176000012022000080400090407800403021009d
:101770001e004000014878001e0fe8001e0078009f
:10178000e10f5000f4ff34000000eb00000f780080
:10179000090037009e00780066804000012022008a
:1017a0000080400090407800603021001e00400022
:1017b000014878001e0fe8001e007800e10f50007d
:1017c000f4ff34000000eb00000f78000500370044
:1017d000803021001e0040008040eb00014878006e
:1017e0001e0fe8001e007800e50f5000f8ff3400df
:1017f000c02f210010407800ea00b9008040780036
:10180000d02f21001040780000c04000f040500070
:101810008030210001487800e02f2100104078003e
:10182000ea00b90080407800f02f210010407800d5
:1018300000c04000f0405000903021000148780086
:101840000030210010407800ea00b90080407800a4
:10185000103021001040780000c04000f0405000df
:10186000a03021000148780020302100104078008d
:10187000ea00b90080407800303021001040780044
:1018800000c04000f0405000b03021000148780016
:101890004030210010407800ea00b9008040780014
:1018a000503021001040780000c04000f04050004f
:1018b000c0302100014878006030210010407800dd
:1018c000ea00b900804078007030210010407800b4
:1018d00000c04000f0405000d030210001487800a6
:1018e0000000eb00000f7800050037000020220008
:1018f0001e0040008040eb00014878001e0fe80009
:10190000500420009e007800808f5000f7ff3400c4
:1019100009003700c02022009040780060c5b30065
:1019200080cf500004003a00608980000000e00091
:1019300001003a00d030ef0050252100104078001f
:101940008040e80050252100014878005025210002
:1019500090407800b0c3b30080cf5000090036003b
:10196000502521008040eb000148780040252100ef
:10197000104078008040e8004025210001487800b0
:10198000340037004025210090407800b0c3b300f8
:1019900080cf500009003600402521008040eb0038
:1019a0000148780030252100104078008040e80090
:1019b000302521000148780026003700302521001d
:1019c00010407800f74f5000090036003025210004
:1019d0008040eb000148780020252100104078006d
:1019e0008040e800202521000148780019003700d8
:1019f0002025210010407800ff4f500009003600dc
:101a0000202521008040eb000148780010252100ae
:101a1000104078008040e80010252100014878003f
:101a20000c0037001025210010407800ec4f5000ca
:101a300008003600102521008040eb0001487800a6
:101a400000252100104078008040e800002521009a
:101a50000148780051878000408780000080600046
:101a60000000e00009003200d630ef00da30ef006d
:101a7000d830ef00e030ef00de30ef00e430ef0070
:101a8000ea30ef00e830ef00ce30ef0070868000e3
:101a9000e10f500009003a0050868000510c2100ef
:101aa00091407800022022000000410001487800a7
:101ab000508680000000e8005086880003c8a90016
:101ac0000080fa003400f9003200f9004f0178007c
:101ad0004f00be0000400600801f78000000fa00a2
:101ae00090118000620060000000e0000100320000
:101af0003222a9000848a9000080fa004f007800af
:101b0000004006003600f800809fbe00829fbe00a5
:101b1000849fbe00869fbe000000fa000228a90034
:101b20004110800000082000008060000000e000fc
:101b30000800320008e2a900f430ef00d0878000ee
:101b4000200090008000eb0001087800fa30ef00e0
:101b50000e013700a08780008000eb00b20020005b
:101b600003002000820f5000838f5800fd003e00cc
:101b7000000601000b0037003a00370076003700fe
:101b80009d003700f4003700c9003700da00370045
:101b9000f1003700dc003700f20037003500370075
:101ba00051003700c00e210020009000620060004c
:101bb0000000e000f4003a00c00e21001000900088
:101bc000d0878800c00e21001000900010407800df
:101bd000f6f0b700c00e2100100090001000900039
:101be000c0878800c00e210010009000e600400071
:101bf000c00e210011009800c00e2100900090003e
:101c0000602d2200808f500003003a00c00e21009a
:101c1000012d220011009800c00e2100200190002b
:101c2000e1ff2f008100610021009800c00e21001b
:101c300090009000c00e210010007800808f5000ae
:101c400004003a00c00e2100a00090000110a00086
:101c5000210098000602a80020002000a08788002c
:101c6000ca0037000622a80020002000a0878800b4
:101c7000c60037004110800000002800008060008e
:101c80000000e00008003200c00e2100604090001b
:101c90008040e800c00e2100614098004000200014
:101ca00012350700b9003700e08780008000d100be
:101cb000f00f20000080600010108800e087800096
:101cc00061006000004078000004e0000300320082
:101cd000b0002000a0878800ac0037003000200052
:101ce000a0878800a900370041108000000028006c
:101cf000008060000000e00008003200c00e2100fb
:101d0000604090008040e800c00e210061409800d3
:101d100040002000f53407009c0037000622a80090
:101d2000e08780004800de00e6006000000f200031
:101d300001007000e0878800e08780000000a000bc
:101d4000e087880010c0b300fef0b700200020003c
:101d5000a08788008d003700fed0bf00e14f500003
:101d60000a003200c087800010007800e0878800f9
:101d7000c08780002000900000888800c087800015
:101d80002040900002f1b70001003700fe70ef0024
:101d9000e1878000f00f2000808f5000090036009e
:101da000e08780004800de00e6006000000f2000b1
:101db0000100700010108800a0002000a08788009b
:101dc00072003700e087800010108800e0878000f4
:101dd00061006000004078000004e0000300320071
:101de00050002000a08788006800370030002000e5
:101df000a08788006500370041108000000028009f
:101e0000008060000000e00009003200c00e2100e8
:101e1000604090008040e800c00e210061409800c2
:101e200009e2a90050002000b03407005700370035
:101e300002d1bf008080fb008100e900cf08de00f6
:101e4000814078000040e90002f1b7000104e000a1
:101e500010003200c087800066004000c087880004
:101e6000f6d0bf000040e900f6f0b700f6d0bf00a2
:101e70000004e00003003a00200020009b3407002b
:101e8000420037000622a80020002000a08788001a
:101e90003e00370000888000904078008180fb0081
:101ea000111088000000e800008888003700370023
:101eb0004110800000002800008060000000e00069
:101ec00009003200c00e2100604090008040e80010
:101ed000c00e2100614098004000200083340700bc
:101ee00009e2a900290037000662a800800020004e
:101ef000a08788002500370080002000a087880088
:101f00000662a800210037000088800001108000d0
:101f100081407800014878000000e80000888800cf
:101f200002d1bf000040e90002f1b70002d1bf00ba
:101f30000004e0000400320006a2a90060002000b6
:101f4000a08788000200370006a2a80056340700c8
:101f50000682a8000d00370020002000633407002f
:101f60000a003700c00e2100604090008040e80069
:101f7000c00e210061409800600020005b34070023
:101f80000000000001003700000000000080fa009f
:101f90004f03be004f02be004f01be004f00be0007
:101fa0003600f90000400600801f78000000fa00ab
:101fb00010c0b3003bf0b70010002000b0898800cb
:101fc00010002000208a880010002000308a88003d
:101fd0000288a9000080fa004f0078000040060047
:101fe000801f78000000fa00100020005082880056
:101ff000100020007082880010002000b089880046
:1020000003a8a9000080fa004f00780000400600f5
:10201000801f78000000fa0010c0b3003bf0b7004a
:1020200010002000b089880010002000f082880095
:102030000008a9000080fa004f0078000040060068
:102040000000fa0006a8a9000080fa00004006007f
:102050000000fa0006c8a9000080fa00004006004f
:10206000809fbe000000fa00511481000020200073
:10207000008060000000e000020032002a68a90031
:10208000200037000a68a9001900370040148100b9
:10209000104078000080fb00a012880040148100ee
:1020a0000000e8004014890041148100402922000a
:1020b000808f500002003a00c0282200401489009e
:1020c00051148100f0ef2f0000806000501489004f
:1020d0004114810030148100808f500004003a00c8
:1020e000501481000090a0005014890005003700b2
:1020f0009112800000202000008060000000e000bd
:10210000e2ff32000080fa004f00be0000400600ef
:10211000801f78000000fa009012800062006000ca
:102120000000e000010032005222a9000a28a900a4
:102130000080fa004f00780000400600801f780001
:102140000000fa00b0128000004078001cf1b700d7
:1021500010002000f088880060898000e10f5000a6
:1021600003003a001cd1bf000080fb002011880052
:102170000a48a9000080fa004f00780000400600dd
:102180003600f800809fbe00829fbe00849fbe0084
:10219000869fbe000000fa00c0898000e10f500059
:1021a00002003a003831ef003c31ef00e089800056
:1021b0000000e800e0898800e0898000e50f500019
:1021c00002003600cd3807003c31ef00302e2200ef
:1021d000104078008040e800302e2200014878004e
:1021e000202e220011c0b300014878000068a90029
:1021f0000080fa004f03be004f02be004f01be0038
:102200004f00be003600f900004006003600f8001e
:10221000809fbe00829fbe00849fbe00869fbe003e
:102220000000fa00a0828000e10f500002003a0096
:102230005430ef004231ef00008a80000000e800d7
:10224000008a8800108a80000000e800108a880058
:10225000108a8000e90f500002003600e9370700bd
:102260004231ef00502e2200104078008040e800fc
:10227000502e220001487800402e220011c0b300e9
:10228000014878000108a9000080fa004f03be0051
:102290004f02be004f01be004f00be003600f900e5
:1022a00000400600809fbe000000fa00211581005a
:1022b00000202000008060000000e00002003200ea
:1022c0002b28a900200037000b28a900190037008f
:1022d00010158100104078000080fb00a0158800d8
:1022e000101581000000e80010158900111581000b
:1022f000e02a2200808f500002003a00602a22006b
:102300001015890021158100f0ef2f00008060007a
:10231000201589001115810000158100808f500063
:1023200004003a00201581000090a00020158900cb
:10233000050037009115800000202000008060001b
:102340000000e000e2ff32000080fa004f00be0013
:10235000004006003600f800809fbe00829fbe004d
:10236000849fbe00869fbe000000fa00b01580006a
:102370000040780004f1b700100020003088880089
:10238000a0888000e10f500018003a00c08880004b
:102390004210210012417800b14e2100808040009f
:1023a000824878000000e800c0888800c18880006a
:1023b00010022000808f50000c0036001431ef0016
:1023c0001000200070888800d03007005050210095
:1023d00010407800e14f400003003a001000200058
:1023e00040828800010037004830ef00808880007c
:1023f000e10f500014003a001031ef0004d1bf008b
:10240000ff4f50000e003a0010002000a088880006
:10241000b04e210001c1b30001487800c04e210038
:1024200011c1b30001487800d04e2100f1c1b300c2
:102430000148780030002000c08888000300370081
:102440001431ef00010037001031ef0040888000a8
:10245000e10f500008003a000831ef0004d1bf003e
:10246000f14f500003003a001000200080888800df
:10247000010037001031ef0004d1bf00f04f5000d1
:1024800005003a0010002000408888004088800045
:1024900040888800010037000831ef000b08a900d0
:1024a0000080fa004f03be004f02be004f01be0085
:1024b0004f00be003600f90000400600801f780083
:1024c0000000fa0090158000620060000000e0004b
:1024d00001003200b222a9000ae8a9000080fa0037
:1024e0004f007800004006000040da000000fe00c7
:1024f0000208a900e70060000228a9000001780096
:1025000083ff2f000207b2004442800084816100f3
:1025100083817000e800600043428800c308de0049
:10252000f3f82f00e1806000444280008481610064
:102530000008b200830171004700de0043428800ba
:10254000e2ff2f0061006000134180000301610081
:102550000000400002817000d1ff2f00124188006e
:102560001441800084806000810070001141880067
:10257000000006000602ab00feff3a000642ab0078
:10258000fcff3a000662ab00faff3a000622ab00fd
:10259000f8ff3a000682ab00f6ff3a0009c2ab0032
:1025a000f4ff3a00000006000662a8000662ab00d5
:1025b000feff3a0008c2a9000010800000000600db
:1025c0008040780000c0eb008180fb001110880083
:1025d00008e2ab0007003a0009c2ab00feff3a0078
:1025e000e4ff07000040eb000802e20001003d00ac
:1025f000e0cfb3000000060006a2a8000682a800f3
:10260000000006002110880030108800000006003d
:102610000622a800000006000602a800000006002e
:102620000642a800000006000000050080017800b6
:1026300002003700b15978000201e9000200e00011
:10264000fcff3a00000006000001780082017800db
:102650003204e000fdff3a0003017800b141780048
:10266000035978000304e000fcff3a000000060074
:1026700080007800010178003104e000fdff3a009d
:102680000000510000000600881f78000204780056
:1026900008017800e5ff0700080040004f047800bb
:1026a000000006000000fa00881f7800000478008f
:1026b000ea8157003fb99700880078004034210034
:1026c000070007000000e00002003500000444009d
:1026d000004ceb004f0478000080fa000000060078
:1026e0006200fa00889fbe008a1f7800000578000b
:1026f00081047800020478008300780080f92f00bc
:102700000f004000cf0307009a979f00a9979f00f2
:102710000000eb00b09f9f001885fb008a04fb00bf
:102720000a05ea004f55de0050022000808f540059
:102730000d003200e10f55000b003a000a0178004d
:10274000880078002f9097009f9197000300010068
:10275000a0979f000000e0008e0032003f98970095
:102760000000e800b09f9f000a04440050022000cf
:10277000808f5400040032000900e000e6ff3a00b8
:102780003f989700840037000000eb00909f9f0067
:10279000809f9f00f0979f00e0979f00d0979f0039
:1027a000c0979f0007003700a12c220001005000b5
:1027b00000004000e12b2200808040005f989700dd
:1027c00011007000d09f9f008804780009047800f1
:1027d000384578008a00fb00a02c220094010700f5
:1027e0000000e000f0ff3a00a1c2b300814f5500a5
:1027f0000e003a00cf8897000180e900c08f9f004b
:1028000010007800c09f9f000000e00005003d0020
:102810000000ea00c09f9f005f9897000020a00082
:10282000d09f9f000904e8000f003700c09f9f0061
:102830000000eb0005003700f2ff2700820f500078
:1028400002003200ea00b90000804000090478006c
:1028500088047800b900fb000103b100e98f500043
:10286000f5ff3600c09f9f00e0c2b300984f1000f4
:10287000020032000080eb0019003700a0c2b30054
:10288000d84f100007003a00cf8897000180e90078
:10289000c08f9f0010007800a09f9f000804e800f0
:1028a000100037000000eb00a09f9f008800780018
:1028b00005003700f3ff2700830f500002003200ad
:1028c000ea00b900000041000104780088007800a7
:1028d0003101fb000203b100e90f5100f5ff3600a2
:1028e000a09f9f00984478008900fb00602b220085
:1028f0004f0107000000e000020032000804e80079
:10290000010037008044eb00c97f9f0080c6b30000
:1029100080cf540004003a0098cf14000a003a0017
:102920006640500006003700c0c6b30080cf540098
:1029300005003a0098cf140003003a0065404000bb
:10294000c07f9f000804e8001801fb00e3fb2f0094
:102950008f81410081f92f008f804000a0f92f0066
:102960000f004000100007000000e00009003a00de
:10297000e1fb2f008f804000a0f92f000f004000e6
:10298000740207000000e000020035000804e800bf
:1029900061ff37000080eb004f0578004f04be0058
:1029a0000080fa0000000600889fbe008a9fbe00db
:1029b000e4c6b300844f5100ce00320010003c004a
:1029c0006b425200844f51001800320005003c0059
:1029d00054c2b300844f51000601320084c5b300d5
:1029e0000f00370044c6b300844f51001500320079
:1029f00065424200844f510001013a001100370046
:102a000004c7b300844f5100ed0032005f00350071
:102a100065424200844f51005c0032006342420034
:102a2000844f5100f6003a00580037001181e90048
:102a300082087800f000900081814100924978007e
:102a4000f500370020629000c5c6b300854f5200e4
:102a500008003a00910278006482520084087800ed
:102a600094029000140278004fabde0086037800d9
:102a70001600370015c7b300854f520003003a0017
:102a8000110478006802540005003700a5c6b300a1
:102a9000854f520008003a00910478006882540083
:102aa000840878009402900024039000b4039000fe
:102ab00014027800050037001182e90084087800cc
:102ac00014027800cfa2de00612bb9000498be008a
:102ad0000690be00a060900088c6b30088cf50006a
:102ae0000d00320028c6b30088cf500004003a0021
:102af0000402fb00cfa2de00612bb9000800370002
:102b000048c7b30088cf5000030032006644440039
:102b100088cf500004003a00cfa2de00612bb9003c
:102b20000498be000690be0010027800900290004b
:102b300020039000b0039000f0009000e00f5200de
:102b4000e08f5a00e00f5b00e08f5b0003003d0068
:102b500001824100d5c2b3000a0037000012900084
:102b60000418a3000300320001824100b5c2b30083
:102b7000040037000408a30059003200018241001c
:102b800005c2b300054a7800530037002062900068
:102b9000c5c6b300854f520009003a001105780000
:102ba00064025500840878001404780094049000ae
:102bb0006055b8000802be000a03be0016003700c8
:102bc00015c7b300854f520003003a009104780006
:102bd0006882540005003700a5c6b300854f520037
:102be00008003a0011057800680255008408780052
:102bf0009402900024039000b40390001402780023
:102c0000050037001182e90084087800140278007a
:102c10008002eb006033b8000498be000690be004e
:102c2000a060900088c6b30088cf50000d0032002d
:102c300028c6b30088cf500004003a000482fb008d
:102c40008002eb006033b8000800370048c7b300cb
:102c500088cf5000030032006644440088cf500003
:102c600004003a008002eb006033b8000498be0014
:102c70000690be00801090000138a30018003200ba
:102c8000100278009002900020039000b0039000a2
:102c9000e00f5200e08f5a00e00f5b00e08f5b0016
:102ca0000f00320081c7b300814f51000300320092
:102cb00081c5b300814f510009003a00f000900037
:102cc0000182410005c3b300054a78008100e80095
:102cd00001824100024a78008100e80071009800fa
:102ce000f0009000818141006300980082407800ec
:102cf0003e003700a0619000c4c6b3001181e90016
:102d000084cf5100220032000a003c00644252008d
:102d100084cf51002500320004c2e80084cf510066
:102d2000130032006842520084cf51001e003a0066
:102d30000a00370044c7b30084cf51001b003200a3
:102d40006642420084cf51001800320069425200ae
:102d500084cf510014003a00050037008208780043
:102d60009200780040589000804878002c0037008e
:102d70008208780092007800600a9000cfa2de00fe
:102d8000612bb9008498be008690be0024003700f5
:102d9000820878009200780060099000cf91de00f0
:102da0008288be001e0037001181e9008208780089
:102db00092007800600890008008780018003700c2
:102dc0001181e9008208780012027800cfa2de00ab
:102dd000612bb9000498be000690be00f000900080
:102de000818141006300980081c7b3001c00070087
:102df0000b003700f0009000818141000500370092
:102e0000f0009000818141000204e00001003a00de
:102e100052c2b300824978008100e8007100980036
:102e20000000eb004f05be004f04be00000006008e
:102e3000020037000304e0000600320000017800c1
:102e400002007800b041780081cf5100f9ff3a00cc
:102e5000010037000001eb000200780000000600ce
:102e6000fc874700889fbe008a9fbe008c9fbe00e3
:102e70008e1f78000006780080c5b30080cf500018
:102e80000a0032007740400080cf50000a00320034
:102e90006940400080cf50000b0032001027220014
:102ea00080bf9f00ae0020000a00370002262200eb
:102eb00082bf9f00060037001327220083bf9f00b8
:102ec0008e002000030037001427220084bf9f00db
:102ed0000e0120001c0278009c0290002c03900040
:102ee000bc0390000605be000404be0040c6b3004b
:102ef00080cf5000030032006540400080cf50007a
:102f00000b003a00e00f5200e08f5a00e00f5b0028
:102f1000e08f5b0006003d006000b8006011b80063
:102f2000040450008584580006055900878559001f
:102f3000e80f57000400320040002000f00f570057
:102f40003c003a000100370030002000e00f540040
:102f5000e08f5c00e00f5d00e08f5d0004003a0050
:102f6000dc0890008d0120000100e0000700320025
:102f70008e00e900888060008fba9700818042004f
:102f800091407800f1ef9f007d01200080007800e3
:102f90008100e900050033008b05d1000a85d300cc
:102fa0008984d3000884d300f9ff3700089ebe004f
:102fb0000a96be00130037008d06e9008e00e90076
:102fc000848060000fb997008100410011417800b2
:102fd00083fd2f008d81410082f779008001780008
:102fe0008301e900050033008783d1000683d30005
:102ff0008582d3000482d300f9ff3700049ebe000f
:103000000696be001c0278009c0290002c039000e3
:10301000bc039000e00f5200e08f5a00e00f5b000d
:10302000e08f5b00930034000d00e000e2ff3c0005
:10303000900037002c60900081c6b300814f500093
:103040000b00320006003c000004e00008003200e3
:10305000e6c05000814f500052003a000400370093
:10306000c1c6b300814f50004e003a002300370024
:103070000800e00004003a005c0890008d01200088
:103080000000e00007003200110009000e84d800a3
:103090000fba97000100420010407800f0ef9f0047
:1030a0007d012000110009000e84d8000b003700bc
:1030b000110009000e04d8008d06e9008e81b900c8
:1030c000020454008fb897000884400098417800ab
:1030d00082fd2f000d014100837779000004780004
:1030e0000800e000020032000d00e000f0ff3c00ac
:1030f000cfc4de00614db90027003700e00f540057
:10310000e08f5c0004003a005c0890008d01200014
:103110000000e000080032006171b9000800be0044
:10312000690107000fba97008000420091407800c3
:10313000f1ef9f007d0120006171b9000800be0021
:10314000510107000c0037006171b9000800be0092
:103150003e0107008d06e90080f1b9000204540029
:103160008fba9700088442009841780082fd2f00b2
:103170000d014100837779000004be00e00f50008c
:10318000e08f5800020032000d00e000eeff3c002e
:103190004fcdde008a057800089ebe000a96be006c
:1031a00034003700e00f5400e08f5c00e00f5d005a
:1031b000e08f5d0004003a005c0890008d01200063
:1031c0000000e0000a0032006172b900612bb90012
:1031d0000800be000a01be00e00107000fba970018
:1031e0008000420091407800f1ef9f007d012000b7
:1031f0006172b900612bb9000800be000a01be006f
:10320000cf0107000e0037006172b900612bb900d1
:103210000800be000a01be00d40107008d06e900c7
:1032200080f2b900040454008fba97000884420069
:103230009842780084fd2f000d02420085777a00c5
:10324000009ebe000296be001c0478009c04900004
:103250002c059000bc059000e00f5400e08f5c004e
:10326000e00f5d00e08f5d00020034000d00e00023
:10327000e5ff3c00e80f570010003a000c109000ea
:103280000038a3000d003200f78f560006003e0004
:1032900080fd2f000d004000ef40780000c3b30018
:1032a00080cf50000500320002c3b30071fd2f0033
:1032b0008d8040008d06e90082f778007881160045
:1032c000120e98006c00900083fd2f008f8141004a
:1032d0008d804100d5fc07001c089000dc089000a0
:1032e000810f500006003d0000805000000e980045
:1032f0000c1090000040a100001698000f0037004d
:103300000100e0000d003d008c109000f480600092
:10331000f08f500009003a007c099000fc009000fa
:10332000810051000c099000828050000080500004
:103330004240a90001003400000e98004f077800b9
:103340004f06be004f05be004f04be00cf01b100c6
:10335000000006000400fa00889fbe008a9fbe009d
:103360008c1f78000004780001067800f80d9000aa
:1033700078009000808555000808900080855500f1
:103380001808900080855500280890008085550019
:1033900038089000808555004808900080855500c9
:1033a0000002220090bf9f0000032300a0bf9f00e7
:1033b000081090000028a30015003a000b00e00060
:1033c000130034000b0578008a047800e20f5500e2
:1033d0000100360029002000c80190000901780092
:1033e000ee80570058009000030001005004980040
:1033f0000000e0008c0032006808900009004000e6
:10340000600c9800090555004240a900eeff3c0001
:10341000780190000200e0000c003400c801900028
:103420008c007800580090000300010050049800c0
:103430008080eb000000e0007c003200e808900093
:103440007800900000804000600c9800880c90008c
:103450000900e0001100340009057800e28f5400f3
:10346000010036002a002000c80190000a017800ff
:10347000ec805700580090000300010050049800b1
:103480000000e00068003200680890000a00400078
:10349000600c98008a845400edff370018099000f2
:1034a0000200e0000c003400c8019000e800900029
:1034b0005800900003000100500498008080eb0049
:1034c0000000e00059003200e80890001808900061
:1034d00000804000600c9800a80c90000900e000fb
:1034e0001100340009057800e28f54000100360015
:1034f0002a002000c80190000a017800ec805700e3
:103500005800900003000100500498000000e00003
:1035100045003200680890000a004000600c9800e6
:103520008a845400edff3700380990000200e00063
:103530000e003400e80090001808900080804000e1
:10354000c80190005800900003000100500498004a
:103550008080eb000000e00034003200e8089000ba
:103560003808900000804000600c9800c80c900063
:103570000900e0001100340009057800e28f5400d2
:10358000010036002a002000c80190000a017800de
:10359000ec80570058009000030001005004980090
:1035a0000000e00020003200680890000a0040009f
:1035b000600c98008a845400edff370008109000da
:1035c0008000eb000028a300180032000b00e00090
:1035d000160034008b04780009057800e28f54004f
:1035e000010036002a002000c80190000a0178007e
:1035f000ee8057005800900003000100500498002e
:103600000000e00008003200680890000a00400056
:10361000600c98008a8454004240a900eeff3c00f0
:103620008000eb00010037008080eb000100780093
:103630004f0678004f05be004f04be000080fa0020
:10364000000006000108780000000600839f680063
:103650000100e00002003d0060001000e080180062
:103660000300e00002003d0060011100e08119004c
:10367000050007004f00e00002003b006000100062
:10368000e0801800000006006022b800060220005a
:103690000000d0008180d2000482d2008582d20056
:1036a0000000a0000202520083825a000300310091
:1036b0000202420083824a000000a1000603e900e2
:1036c000f3ff3a0000000600efff07000400be0011
:1036d00000000600889fbe008a9fbe0030044200a2
:1036e000b0844a0030054b0090854b006000b1006b
:1036f0000898be000a90be000440e10005c8e10041
:1037000006d0e10007d8e100020031006800400067
:103710001008e8004f05be004f04be000000060080
:10372000889fbe008a9fbe0010047800900490001d
:1037300020059000b00590000418540005985c0026
:1037400006185d0007985d00110020000440e100ac
:1037500005c8e10006d0e10007d8e100010039000a
:103760008000eb00108810004f05be004f04be0023
:10377000000006001200fa00889fbe008a9fbe006b
:103780008c9fbe00e0b79f00f1b79f0082bf9f00f3
:1037900093bf9f000605be000404be000000eb00be
:1037a000d0b79f00c0b79f00b0b79f00a0b79f00e1
:1037b00090b79f000006eb005fb19700cfb0970075
:1037c000820141003fb097000200e00004003d008c
:1037d000370007007e805700beff07000300370058
:1037e000330007007e805700cdff0700dfb697004b
:1037f0000d00e0000c0035006fb29700ffb297009b
:103800000fbb97009fbb9700100020000100200015
:103810006011b8000002720081827200020373001e
:10382000838373001b0007000c06e80001042000de
:10383000810f5600e0ff3a000d00e00004003d005b
:103840000802be000a03be007e805700a1ff0700e9
:103850005fa897000000e00005003a001fb2970043
:10386000afb297003fb39700cfb3970009000700ae
:103870006fb09700ffb097000fb997009fb99700fe
:103880004f06be004f05be004f04be000080fa0088
:10389000000006000100070000000600a4b79f001a
:1038a000b5b79f00c6b79f00d7b79f0000000600be
:1038b0004f09de0082817100b3b79f004f01de0027
:1038c0008180400082807000a1b79f008fb0970078
:1038d0004f09de00000040000200700090b79f001a
:1038e0007fa897004f01de00818040008280700039
:1038f00081b79f000d0007004f3ade000000400036
:1039000004007000f0af9f000800070004024200ae
:1039100085824a0006034b0087834b00dfff0700c8
:103920000802be000a03be00000006002fb2970086
:10393000bfb297004fb39700dfb3970000000600b7
:10394000881f780018002000881f780089ff070072
:103950008f87e9004f04780000000600801feb000d
:1039600084ff07008f87e90000000600889fbe00e3
:103970008a9fbe00e00f5000e08f5800e00f590012
:10398000e08f59000c003d006044b8006055b8005d
:103990000000540081805c0002015d0083815d00b5
:1039a000180020001500070008003d00180007005f
:1039b0000004eb00050037000004eb000f000700d7
:1039c00002003d001200070018002000dcff070085
:1039d0000800e000060032006022b8006033b80042
:1039e0000000520081805a0002015b0083815b006d
:1039f0004f05be004f04be0000000600e00f52005d
:103a0000e08f5a00e00f5b00e08f5b0000000600d3
:103a10006044b8006055b8000402540085825c0020
:103a200006035d0087835d0000000600889fbe00de
:103a30008a9fbe008c1f7800e00f5000e08f580076
:103a4000e00f5900e08f59000d003d006044b800c0
:103a50006055b8000000540081805c0002015d00e8
:103a600083815d001c0020000820e10009a8e1001e
:103a70000ab0e1000bb8e1000d003d00080037007e
:103a80000006eb00e00f5200e08f5a00e00f5b00f1
:103a9000e08f5b0006003d006044b8006055b80050
:103aa0000402540085825c0006035d0087835d008c
:103ab000aaff07000c00e000060032006022b800f8
:103ac0006033b8000000520081805a0002015b00a0
:103ad00083815b004f0678004f05be004f04be0097
:043ae00000000600dc
:020000040000fa
:103ae4007761000069740000746900006e6700006b
:103af40020340000470000002e0000000d0a0000e2
:103b0400004900004d450000492f0000494d0000c8
:103b1400534900003a090000002f0000005600003d
:103b2400657200003a760000302e0000322e00004c
:103b3400350d00000a0d00000a3400004720000083
:103b44006d6f0000647500006c6500003a20000091
:103b54004e4700000d0a0000005600006572000088
:103b64003a760000302e0000322e0000350d0000a1
:103b74000a0d00000a340000472000006d6f0000a9
:103b8400647500006c6500003a200000504100009c
:103b9400535300000d0a0000004700002d5300009d
:103ba400656e0000736f0000723a0000204e000042
:103bb400470d00000a000000472d00005365000077
:103bc4006e7300006f7200003a2000005041000044
:103bd400535300000d0a000000430000414e000052
:103be4005f55000041520000543a0000205000008c
:103bf40041530000530d00000a000000434100003f
:103c04004e5f000055410000525400003a2000006d
:103c14004e4700000d0a00000020000002050000cd
:103c24000101000002090000a5ff0000004400009b
:103c3400565200005f55000041520000543a000003
:103c44002050000041530000530d00000a00000002
:103c540044560000525f00005541000052540000d9
:103c64003a2000004e4700000d0a000000570000f3
:103c740061740000746900006e6700002047000052
:103c84002d730000656e0000736f00007220000049
:103c9400776100006b650000732000007570000000
:103ca400004700002d730000656e0000736f000074
:103cb40072200000776100006b6500007320000033
:103cc400757000003a20000050410000535300007a
:103cd4000d0a0000004700002d730000656e00000f
:103ce400736f000072200000776100006b650000b4
:103cf40073200000757000003a2000004e47000059
:103d04000d0a00000057000061740000746900008f
:103d14006e67000020430000414e00002077000041
:103d2400616b0000657300002075000070000000e6
:103d34005761000074740000696e00006720000081
:103d4400434100004e200000776100006b650000d5
:103d540073200000757000003a20000050410000fc
:103d6400535300000d0a0000005700006174000066
:103d7400746900006e67000020430000414e00009b
:103d840020770000616b000065730000207500005f
:103d9400703a0000204e0000470d00000a000000a9
:103da4005761000074740000696e00006720000011
:103db4004261000074740000657200007920000004
:103dc400446500007465000063740000696f0000be
:103dd4006e0000004261000074740000657200000f
:103de4007920000031300000563a000020500000d5
:103df40041530000530d00000a000000426100001e
:103e040074740000657200007920000031300000f5
:103e1400563a0000204e0000470d00000a00000042
:103e24004261000074740000657200007920000093
:103e340031310000563a0000205000004153000088
:103e4400530d00000a000000426100007474000079
:103e5400657200007920000031310000563a0000fc
:103e6400204e0000470d00000a00000057610000ca
:103e740074740000696e0000672000004750000061
:103e8400532e00002e2e00002e2e00002e2e000099
:103e94002e2e00002e2e00002e2e000000470000c3
:103ea400505300003a2000005041000053530000da
:103eb4000d0a000000470000505300003a200000a3
:103ec4004e4700000d0a0000000d00000a2a000001
:103ed4002a2a00002a2a00002a2a00002a2a00008e
:103ee4002a2a00002a2a00002a2a00002a2a00007e
:103ef4002a2a00002a2a00002a2a00002a2a00006e
:103f04002a2a00002a2a00002a2a00002a2a00005d
:103f14002a2a00002a2a00002a2a00002a2a00004d
:103f24002a2a00002a2a00002a2a00002a2a00003d
:103f34002a2a00002a2a00002a2a00002a2a00002d
:103f44002a2a00002a2a00002a2a00002a2a00001d
:103f54002a2a00002a2a00002a2a00002a2a00000d
:103f64002a2a00002a2a00002a2a00002a2a0000fd
:103f74002a2a00002a2a00002a2a00002a2a0000ed
:103f84002a2a00002a2a00002a2a00000d0a00001a
:103f9400002a00002a2a00002a2a00002a2a0000f7
:103fa4002a2a00002a2a00002a2a00002a2a0000bd
:103fb4002a2a00002a2a00002a2a00002a2a0000ad
:103fc4002a2a00002a2a00002a2a00002a2a00009d
:103fd4002a2a00002a2a00002a2a00002a2a00008d
:103fe4002a2a00002a2a00002a2a00002a2a00007d
:103ff4002a2a00002a2a00002a2a00002a2a00006d
:104004002a2a00002a2a00002a2a00002a2a00005c
:104014002a2a00002a2a00002a2a00002a2a00004c
:104024002a2a00002a2a00002a2a00002a2a00003c
:104034002a2a00002a2a00002a2a00002a2a00002c
:104044002a2a00002a2a00002a2a00002a2a00001c
:104054000d0a0000004e0000470d00000a00000099
:1040640050410000535300000d0a000000410000bd
:10407400542b00004349000050540000494d0000f7
:10408400454f0000555400003d330000303000001f
:10409400302c000033300000303000002c3300009e
:1040a40030300000300d00000a00000031530000e1
:1040b4000d0a000000310000305300000d0a00001a
:1040c40000320000305300000d0a000000330000ed
:1040d400305300000d0a000000340000305300008b
:1040e4000d0a000000350000305300000d0a0000e6
:1040f40000360000305300000d0a000000370000b5
:10410400305300000d0a000000340000470d000089
:104114000a00000030300000303000003030000071
:10412400303000003030000030300000303000000b
:1041340030300000303000003030000030300000fb
:1041440030300000303000003030000030300000eb
:1041540030300000303000003030000030300000db
:1041640030300000303000003030000030300000cb
:1041740030300000303000003030000030300000bb
:1041840030300000303000003030000030300000ab
:10419400303000003030000030300000303000009b
:1041a40030300000303000000030000031300000ba
:1041b4003130000031300000313000003130000077
:1041c4003130000031300000313000003130000067
:1041d4003130000031300000313000003130000057
:1041e4003130000031300000313000003130000047
:1041f4003130000031300000313000003130000037
:104204003130000031300000313000003130000026
:104214003130000031300000313000003130000016
:104224003130000031300000313000003130000006
:1042340031300000313000003130000031300000f6
:104244003100000030310000303100003031000016
:1042540030310000303100003031000030310000d6
:1042640030310000303100003031000030310000c6
:1042740030310000303100003031000030310000b6
:1042840030310000303000003130000031300000a7
:104294003130000030310000303100003031000096
:1042a4003031000030310000303000003130000087
:1042b4003130000031300000313000003130000076
:1042c4003130000030310000303100003031000066
:1042d4003031000030310000303100003000000087
:1042e4003032000030320000303200003032000042
:1042f4003032000030320000303200003032000032
:104304003032000030320000303200003032000021
:104314003032000030320000303200003032000011
:104324003032000030320000303200003032000001
:1043340030320000303200003032000030320000f1
:1043440030320000303200003032000030320000e1
:1043540030320000303200003032000030320000d1
:1043640030320000303200003032000030320000c1
:1043740030320000303200003032000000320000e1
:104384003232000032320000323200003232000099
:104394003232000032320000323200003232000089
:1043a4003232000032320000323200003232000079
:1043b4003232000032320000323200003232000069
:1043c4003232000032320000323200003232000059
:1043d4003232000032320000323200003232000049
:1043e4003232000032320000323200003232000039
:1043f4003232000032320000323200003232000029
:104404003232000032320000323200003232000018
:10441400323200003232000032000000303300003b
:1044240030330000333000003330000033300000fc
:1044340033300000333000003330000033300000ec
:1044440033300000333000003330000033300000dc
:1044540033300000333000003330000033300000cc
:1044640033300000333000003330000033300000bc
:1044740033300000333000003330000033300000ac
:10448400333000003330000033300000333000009c
:10449400333000003330000033300000333000008c
:1044a400333000003330000033300000333000007c
:1044b400333000003330000033300000333000006c
:1044c4003300000033330000333300003333000083
:1044d4003333000033330000333300003333000040
:1044e4003333000033330000333300003333000030
:1044f4003333000033330000333300003333000020
:10450400333300003333000033330000333300000f
:1045140033330000333300003333000033330000ff
:1045240033330000333300003333000033330000ef
:1045340033330000333300003333000033330000df
:1045440033330000333300003333000033330000cf
:1045540033330000333300003333000033330000bf
:1045640033330000333300003320000000300000f8
:1045740034300000343000003430000034300000a7
:104584003430000034300000343000003430000097
:104594003430000034300000343000003430000087
:1045a4003430000034300000343000003430000077
:1045b4003430000034300000343000003430000067
:1045c4003430000034300000343000003430000057
:1045d4003430000034300000343000003430000047
:1045e4003430000034300000343000003430000037
:1045f4003430000034300000303400003034000027
:104604003034000030340000303400003034000016
:104614003034000000410000542b000043440000eb
:104624004e53000047490000503d0000227700002f
:10463400777700002e680000696e00006574000042
:104644002e6e000065740000220d00000a000000b8
:10465400415400002b430000444e00005347000027
:10466400495000003d22000077770000772e0000bb
:10467400676f00006f6700006c6500002e63000028
:104684006f6d0000220d00000a0000002a2a0000bd
:104694002a2a00002a2a00002a2a00002a2a0000c6
:1046a4002a2a00002a2a00002a2a00002a2a0000b6
:1046b4002a2a00002a2a00002a2a00002a2a0000a6
:1046c4002a2a00002a2a00002a2a00002a2a000096
:1046d4002a2a00002a2a00002a2a00002a2a000086
:1046e4002a2a00002a2a00002a2a00002a2a000076
:1046f4002a2a00002a2a00002a2a00002a2a000066
:104704002a2a00002a2a00002a2a00002a2a000055
:104714002a2a00002a2a00002a2a00002a2a000045
:104724002a2a00002a2a00002a2a00000d0a000072
:104734000009000009200000524500005345000014
:10474400545f00005f5f00005f340000470d00000d
:104754000a0000003d3d00003d3d00003d3d0000dd
:104764003d3d00003d3d00003d3d00003d3d00005d
:104774003d3d00003d3d00003d3d00003d3d00004d
:104784003d3d00003d3d00003d3d00003d3d00003d
:104794003d3d00003d3d00003d3d00003d3d00002d
:1047a4003d3d00003d3d00003d3d00003d3d00001d
:1047b4003d3d00003d3d00003d3d00003d3d00000d
:1047c4003d3d00003d3d00003d3d00003d3d0000fd
:1047d4003d3d00003d3d00003d3d00003d3d0000ed
:1047e4003d3d00003d3d00003d3d00003d3d0000dd
:1047f4003d3d00003d3d00003d3d00003d3d0000cd
:104804003d3d00003d3d00003d3d00003d3d0000bc
:104814003d3d00003d3d00003d3d00003d3d0000ac
:104824003d3d00003d3d00003d3d00003d3d00009c
:104834003d3d00003d3d00003d3d00003d3d00008c
:104844003d3d00003d3d00003d3d00003d3d00007c
:104854003d3d00003d3d00003d3d00003d3d00006c
:104864000d0a000000410000540d00000a00000081
:10487400415400002b430000535100000d0a000076
:1048840000410000542b000043470000534e000039
:104894000d0a000000410000542b000043490000b1
:1048a4004d4900000d0a00000025000064000000ce
:1048b400583d000000090000593d000000090000b7
:1048c4005a3d000000410000542b000056540000e3
:1048d400443f00000d0a000000410000542b00007a
:1048e40043490000504d00004f440000453d000086
:1048f400310d00000a000000415400002b43000069
:10490400475300004f4300004b4300004f4e00004c
:10491400543d0000312c00002249000050220000c8
:104924002c220000696e000074650000726e0000a5
:10493400657400002e6900006f740000220d0000f1
:104944000a000000415400002b4e000045540000b2
:104954004f500000454e00000d0a000000410000c9
:10496400542b000043490000504f00005045000004
:104974004e3d0000302c0000225400004350000043
:10498400222c0000226b0000772d00003467000009
:10499400626f0000786c0000622e00006a61000003
:1049a400706100006e77000065730000742e0000d3
:1049b400636c00006f75000064610000707000009b
:1049c4002e6100007a750000726500002e630000fd
:1049d4006f6d0000222c00003138000036300000da
:1049e400300d00000a000000106200000301000006
:1049f400662a0000770000002b2b00002b0000002b
:104a0400415400002b43000049500000434c000077
:104a14004f530000453d0000300d00000a00000027
:104a2400415400002b4e000045540000434c00004c
:104a34004f530000450d00000a0000002002000052
:104a4400050100000100000007a50000ff000000b0
:104a54002001000002000000a5ff0000002000006b
:104a640051000000091200000101000000000000d4
:104a7400000000006e2a000077000000415400008e
:104a84002b430000495000004d4f000044450000f6
:104a94003d3000000d0a0000002000000204000068
:0c4aa4000101000006a50000ff0000005a
:020000040000fa
:104ab0000000fa00c3e8a8000000000000000000a9
:104ac0000080fa00000006000000fa0040a7a800dd
:104ad0000080fa00000006000000fa0040a7a900cc
:104ae0000080fa00000006000000fa000060fe00ee
:104af0000080fa00000006000000fa00172b0700f3
:104b0000fd21070008220700e9ff07004230ef00ff
:104b100000002000a1052000dc2e070030d1bf00de
:104b20000080fb005200200041022000602a0700a4
:104b300030d1bf000080fb00020f20007102200076
:104b40005b2a070030d1bf000080fb00020120007b
:104b5000e1022000562a070030d1bf000080fb0090
:104b600002012000f1022000512a070030d1bf00cd
:104b70000080fb0082002000d10220004c2a0700a8
:104b800030d1bf000080fb00020220001103200092
:104b9000472a070000002000a1052000bb2e0700c7
:104ba00020ec2500000001005050210021c0b3007e
:104bb000014878003bd0bf00e14f500005003200b3
:104bc0009170800000002400008060000000e00080
:104bd0001c00320010c0b30036f1b70010002000f6
:104be0009080880017003700000000001500370093
:104bf0000000000013003700000000001100370023
:104c0000000000000f003700000000000d0037001a
:104c1000000000000b003700000000000900370012
:104c2000000000000700370000000000050037000a
:104c30000000000003003700000000000100370002
:104c400000000000148ea800107080006100600059
:104c50000000e00008003a00107080006200600070
:104c60000000e00004003a0010002000708288007c
:104c700010c0b30036f1b70091708000000024002e
:104c8000008060000000e000010032004e30ef00c4
:104c9000c08080000000e800c0808800c0808000e4
:104ca000e50f5000020034001830ef000400370018
:104cb000008a80000000e000010032001830ef00a0
:104cc0009170800000002200008060000000e00081
:104cd0009e01320000002000211c20006b2e0700e6
:104ce0009170800000002200008060000000e00061
:104cf000bdff320091708000000024000080600041
:104d00000000e0008e01320090808000e10f500032
:104d100061013a000070ef001230ef00a0ee2500b4
:104d20000000010020d72900822707002e30ef0065
:104d30003030ef000b00370000002000a1052000fc
:104d4000522e0700e0d729007a27070070818000e3
:104d50008181800061004000e0804800708188000f
:104d6000818188009083800000f0a7000000ea00a5
:104d70000000e9004f00de00804278007281800070
:104d80008381800014c0b30070382100010020002e
:104d9000800f5100818f5900010036000042eb0066
:104da00004c062000004e000e3ff3a0000d82900dc
:104db00060270700002d2300000001008041230030
:104dc00000000100201a230000000100e080240000
:104dd0000000010030d8290056270700f10020000c
:104de0001052210069270700f0d829005127070039
:104df000f1002000f05321006427070000d82900ab
:104e00004c270700050ea900105221001040780021
:104e10000004e00029003a002052210010407800f0
:104e20000004e00025003a003052210010407800d4
:104e30000004e00021003a004052210010407800b8
:104e40000004e0001d003a0050522100104078009c
:104e50000004e00019003a00f053210010407800ef
:104e60000004e00015003a000054210010407800d2
:104e70000004e00011003a001054210010407800b6
:104e80000004e0000d003a0020542100104078009a
:104e90000004e00009003a0030542100104078007e
:104ea0000004e00005003a0010d92900212707007e
:104eb00010c0b30000f0b70002003700f0da29009c
:104ec0001c27070000d829001a270700803121007d
:104ed000104078000004e00005003a00f0dc2900f2
:104ee0001427070010c0b30000f0b700020037001d
:104ef000e0dd29000f27070000d829000d27070053
:104f000004d1bf000004e00003003200f0de2900fd
:104f1000082707000400370000e0290005270700e4
:104f200010c0b30000f0b70000d829000127070027
:104f3000050ea800f0e02900c42507001cd1bf0021
:104f40000004e0000300320090e12900f926070088
:104f500004003700a0e22900f626070010c0b300c5
:104f600000f0b70000d82900f226070090e32900de
:104f7000f02607005e30ef0020ec25000000010065
:104f80002e30ef003030ef000b0037000000200023
:104f9000a1052000bd2d0700e0d72900e526070068
:104fa000708180008181800061004000e0804800c5
:104fb0007081880081818800f08280000000e0001c
:104fc00007003a0072818000838180003006200053
:104fd00001002000800f5100818f5900ebff360047
:104fe00000d82900d3260700f0828000e10f50008e
:104ff00003003a0030e52900ce2607000400370000
:10500000d0e62900cb26070010c0b30000f0b7009f
:1050100000d82900c726070050e82900c526070048
:105020005e30ef0030d1bf000080fb000001eb00dc
:10503000e10220001e2907002e30ef003030ef0083
:105040000b00370000002000a10520008f2d070075
:10505000e0d72900b7260700708180008181800099
:1050600061004000e08048007081880081818800f4
:10507000f08280000000e00007003a0072818000aa
:10508000838180003006200001002000800f510045
:10509000818f5900ebff360000d82900a5260700b4
:1050a000f0828000e10f500003003a00a0e92900df
:1050b000a02607000400370070eb29009d2607009a
:1050c00010c0b30000f0b7002008a90000d82900e4
:1050d0009826070020ed2900962607002e30ef00c5
:1050e0003030ef000b00370000002000a105200049
:1050f000662d0700e0d729008e260700708180000a
:105100008181800061004000e0804800708188005b
:105110008181880010708000620060000000e00063
:1051200004003a0010708000610060000000e000a0
:1051300007003200728180008381800030062000e9
:1051400001002000800f5100818f5900e6ff3600da
:1051500000d82900772607001070800062006000e8
:105160000000e00003003a00c0ee290071260700ad
:105170000400370000f029006e26070010c0b300bd
:1051800000f0b70058fe070010708000610060005a
:105190000000e00003003a0020f129006526070026
:1051a0000400370060f229006226070010c0b30037
:1051b00000f0b7004cfe070000d829005d2607006c
:1051c00080f329005b2607002e30ef003030ef001f
:1051d0000b00370000002000413820002b2d070075
:1051e000e0d729005326070070818000818180006c
:1051f00061004000e0804800708188008181880063
:10520000c02022009040780010c4b30080cf50002e
:1052100007003200728180008381800070072000c7
:1052200001002000800f5100818f5900e9ff3600f6
:1052300000d829003f260700c020220090407800b7
:1052400010c4b30080cf500003003a0010f52900cd
:105250003826070004003700d0f52900352607005e
:1052600010c0b30000f0b70070f629003126070027
:10527000b0fc29002f26070000d0bf00e14f5000ee
:1052800003003a00d0022a002a2607000200370055
:1052900020032a0027260700105221001040780022
:1052a0000004e00052fe3a00205221001040780035
:1052b0000004e00050fe3a00305221001040780017
:1052c0000004e0004efe3a004052210010407800f9
:1052d0000004e0004cfe3a005052210010407800db
:1052e0000004e0004afe3a00f0532100104078002c
:1052f0000004e00048fe3a0000542100104078000d
:105300000004e00046fe3a001054210010407800ee
:105310000004e00044fe3a002054210010407800d0
:105320000004e00042fe3a003054210010407800b2
:105330000004e00040fe3a000000fe0041fe37009d
:1053400000f52500000001003efe3700e6fd0700e5
:105350003bd0bf00e14f500005003200917080004b
:1053600000002400008060000000e0000200320025
:1053700010c0b30036f1b70090808000e10f5000fc
:1053800067003a0036d1bf00e14f500064003a0098
:105390001230ef0090708000a0ee250000000100a8
:1053a0004830ef00208a8000e10f500002003a00f0
:1053b00000ac240000000100c3fd07007230ef00c4
:1053c00010002000608288002e30ef003030ef00a7
:1053d000200037000000200091002000ab2c0700c7
:1053e0009170800000002400008060000000e00058
:1053f00012003a0030888000e10f500001003a00ae
:105400001830ef005050210010407800e14f40006c
:1054100003003a001000200040828800010037009d
:105420004830ef0040828000e10f500003003a0056
:105430004c30ef003b70ef001000370070818000af
:105440008181800061004000e08048007081880018
:1054500081818800908380000000e00007003a000e
:10546000728180008381800070bb200001002000d9
:10547000800f5100818f5900d6ff36006082800076
:105480000000e000260032001830ef00ae30ef00e0
:1054900000002000413820007c2c070090032a00e7
:1054a000e22207000000200041382000772c07008e
:1054b0008dfd0700007623000000010060e224005b
:1054c0000000010091708000000024000080600056
:1054d0000000e00006003200c08580000000e0000f
:1054e00003003a00608580000000e000e6ff320023
:1054f00070858000e10f5000e3ff320010828000d1
:10550000e10f500005003a00917080000000240077
:10551000008060000000e000dbff3a001430ef0084
:1055200010838000e10f500010003a00917080005d
:1055300000002400008060000000e0000b0032004a
:10554000108280000000e00008003a00e09823008c
:1055500000000100802124000000010020d323006e
:105560000000010000af2500000001006085800000
:10557000e10f500005003a00917080000000240007
:10558000008060000000e00085013a00917080001a
:1055900000002400008060000000e000e80032000d
:1055a000308a8000e10f50006c003a004631ef0075
:1055b00030d1bf000080fb00e2012000410220004a
:1055c000bb27070020ec2500000001002e30ef0073
:1055d0003030ef00520037001a30ef00000020009a
:1055e00041382000292c07003ffd070080052a00d4
:1055f0008e2207007281800083818000a00020003d
:1056000001002000800f5100818f590003003a00f3
:10561000d0052a00852207003b00370072818000f8
:10562000838180004001200001002000800f510094
:10563000818f590003003a0030062a007b220700c0
:10564000310037007281800083818000e0012000fa
:1056500001002000800f5100818f590003003a00a3
:1056600090062a007122070027003700728180000f
:10567000838180008002200001002000800f510003
:10568000818f590003003a00f0062a0067220700c4
:105690001d0037007281800083818000200320007c
